{
	"remix-simple-storage-cu-2024/contracts/SimpleStorage.sol": {
		"SimpleStorage": {
			"abi": [
				{
					"inputs": [
						{
							"internalType": "string",
							"name": "_name",
							"type": "string"
						},
						{
							"internalType": "uint256",
							"name": "_myFavoriteNumber",
							"type": "uint256"
						}
					],
					"name": "addPerson",
					"outputs": [],
					"stateMutability": "nonpayable",
					"type": "function"
				},
				{
					"inputs": [],
					"name": "hasFavoriteNumber",
					"outputs": [
						{
							"internalType": "bool",
							"name": "",
							"type": "bool"
						}
					],
					"stateMutability": "view",
					"type": "function"
				},
				{
					"inputs": [
						{
							"internalType": "uint256",
							"name": "",
							"type": "uint256"
						}
					],
					"name": "listOfPersons",
					"outputs": [
						{
							"internalType": "string",
							"name": "name",
							"type": "string"
						},
						{
							"internalType": "uint256",
							"name": "myFavoriteNumber",
							"type": "uint256"
						}
					],
					"stateMutability": "view",
					"type": "function"
				},
				{
					"inputs": [
						{
							"internalType": "string",
							"name": "name",
							"type": "string"
						}
					],
					"name": "nameToFavoritenumber",
					"outputs": [
						{
							"internalType": "uint256",
							"name": "favoriteNumber",
							"type": "uint256"
						}
					],
					"stateMutability": "view",
					"type": "function"
				},
				{
					"inputs": [],
					"name": "retrieve",
					"outputs": [
						{
							"internalType": "uint256",
							"name": "",
							"type": "uint256"
						}
					],
					"stateMutability": "view",
					"type": "function"
				},
				{
					"inputs": [
						{
							"internalType": "uint256",
							"name": "_favoriteNumber",
							"type": "uint256"
						}
					],
					"name": "store",
					"outputs": [],
					"stateMutability": "nonpayable",
					"type": "function"
				},
				{
					"inputs": [
						{
							"internalType": "uint256",
							"name": "_favoriteNumber",
							"type": "uint256"
						}
					],
					"name": "storeAndPlus",
					"outputs": [],
					"stateMutability": "nonpayable",
					"type": "function"
				}
			],
			"devdoc": {
				"kind": "dev",
				"methods": {},
				"version": 1
			},
			"evm": {
				"assembly": "    /* \"remix-simple-storage-cu-2024/contracts/SimpleStorage.sol\":268:1603  contract SimpleStorage {... */\n  mstore(0x40, 0x80)\n    /* \"remix-simple-storage-cu-2024/contracts/SimpleStorage.sol\":392:397  false */\n  0x00\n    /* \"remix-simple-storage-cu-2024/contracts/SimpleStorage.sol\":360:397  bool public hasFavoriteNumber = false */\n  dup1\n  exp(0x0100, 0x00)\n  dup2\n  sload\n  dup2\n  0xff\n  mul\n  not\n  and\n  swap1\n  dup4\n  iszero\n  iszero\n  mul\n  or\n  swap1\n  sstore\n  pop\n    /* \"remix-simple-storage-cu-2024/contracts/SimpleStorage.sol\":475:476  0 */\n  0x00\n    /* \"remix-simple-storage-cu-2024/contracts/SimpleStorage.sol\":439:476  int internal  favoriteNumberInInt = 0 */\n  0x02\n  sstore\n    /* \"remix-simple-storage-cu-2024/contracts/SimpleStorage.sol\":482:515  string favoriteNumberInText = \"0\" */\n  mload(0x40)\n  dup1\n  0x40\n  add\n  0x40\n  mstore\n  dup1\n  0x01\n  dup2\n  mstore\n  0x20\n  add\n  0x3000000000000000000000000000000000000000000000000000000000000000\n  dup2\n  mstore\n  pop\n  0x03\n  swap1\n  dup2\n  tag_1\n  swap2\n  swap1\n  tag_2\n  jump\t// in\ntag_1:\n  pop\n    /* \"remix-simple-storage-cu-2024/contracts/SimpleStorage.sol\":541:583  0xF805636A05Bb396faF9Bb6954F4112d8c8F6B104 */\n  0xf805636a05bb396faf9bb6954f4112d8c8f6b104\n    /* \"remix-simple-storage-cu-2024/contracts/SimpleStorage.sol\":521:583  address myAddress = 0xF805636A05Bb396faF9Bb6954F4112d8c8F6B104 */\n  0x04\n  exp(0x0100, 0x00)\n  dup2\n  sload\n  dup2\n  0xffffffffffffffffffffffffffffffffffffffff\n  mul\n  not\n  and\n  swap1\n  dup4\n  0xffffffffffffffffffffffffffffffffffffffff\n  and\n  mul\n  or\n  swap1\n  sstore\n  pop\n    /* \"remix-simple-storage-cu-2024/contracts/SimpleStorage.sol\":589:629  bytes32 favoriteBytes32 = \"Hello World!\" */\n  sstore(0x05, 0x48656c6c6f20576f726c64210000000000000000000000000000000000000000)\n    /* \"remix-simple-storage-cu-2024/contracts/SimpleStorage.sol\":268:1603  contract SimpleStorage {... */\n  callvalue\n  dup1\n  iszero\n  tag_3\n  jumpi\n  0x00\n  dup1\n  revert\ntag_3:\n  pop\n  jump(tag_4)\n    /* \"#utility.yul\":7:106   */\ntag_5:\n    /* \"#utility.yul\":59:65   */\n  0x00\n    /* \"#utility.yul\":93:98   */\n  dup2\n    /* \"#utility.yul\":87:99   */\n  mload\n    /* \"#utility.yul\":77:99   */\n  swap1\n  pop\n    /* \"#utility.yul\":7:106   */\n  swap2\n  swap1\n  pop\n  jump\t// out\n    /* \"#utility.yul\":112:292   */\ntag_6:\n    /* \"#utility.yul\":160:237   */\n  0x4e487b7100000000000000000000000000000000000000000000000000000000\n    /* \"#utility.yul\":157:158   */\n  0x00\n    /* \"#utility.yul\":150:238   */\n  mstore\n    /* \"#utility.yul\":257:261   */\n  0x41\n    /* \"#utility.yul\":254:255   */\n  0x04\n    /* \"#utility.yul\":247:262   */\n  mstore\n    /* \"#utility.yul\":281:285   */\n  0x24\n    /* \"#utility.yul\":278:279   */\n  0x00\n    /* \"#utility.yul\":271:286   */\n  revert\n    /* \"#utility.yul\":298:478   */\ntag_7:\n    /* \"#utility.yul\":346:423   */\n  0x4e487b7100000000000000000000000000000000000000000000000000000000\n    /* \"#utility.yul\":343:344   */\n  0x00\n    /* \"#utility.yul\":336:424   */\n  mstore\n    /* \"#utility.yul\":443:447   */\n  0x22\n    /* \"#utility.yul\":440:441   */\n  0x04\n    /* \"#utility.yul\":433:448   */\n  mstore\n    /* \"#utility.yul\":467:471   */\n  0x24\n    /* \"#utility.yul\":464:465   */\n  0x00\n    /* \"#utility.yul\":457:472   */\n  revert\n    /* \"#utility.yul\":484:804   */\ntag_8:\n    /* \"#utility.yul\":528:534   */\n  0x00\n    /* \"#utility.yul\":565:566   */\n  0x02\n    /* \"#utility.yul\":559:563   */\n  dup3\n    /* \"#utility.yul\":555:567   */\n  div\n    /* \"#utility.yul\":545:567   */\n  swap1\n  pop\n    /* \"#utility.yul\":612:613   */\n  0x01\n    /* \"#utility.yul\":606:610   */\n  dup3\n    /* \"#utility.yul\":602:614   */\n  and\n    /* \"#utility.yul\":633:651   */\n  dup1\n    /* \"#utility.yul\":623:704   */\n  tag_30\n  jumpi\n    /* \"#utility.yul\":689:693   */\n  0x7f\n    /* \"#utility.yul\":681:687   */\n  dup3\n    /* \"#utility.yul\":677:694   */\n  and\n    /* \"#utility.yul\":667:694   */\n  swap2\n  pop\n    /* \"#utility.yul\":623:704   */\ntag_30:\n    /* \"#utility.yul\":751:753   */\n  0x20\n    /* \"#utility.yul\":743:749   */\n  dup3\n    /* \"#utility.yul\":740:754   */\n  lt\n    /* \"#utility.yul\":720:738   */\n  dup2\n    /* \"#utility.yul\":717:755   */\n  sub\n    /* \"#utility.yul\":714:798   */\n  tag_31\n  jumpi\n    /* \"#utility.yul\":770:788   */\n  tag_32\n  tag_7\n  jump\t// in\ntag_32:\n    /* \"#utility.yul\":714:798   */\ntag_31:\n    /* \"#utility.yul\":535:804   */\n  pop\n    /* \"#utility.yul\":484:804   */\n  swap2\n  swap1\n  pop\n  jump\t// out\n    /* \"#utility.yul\":810:951   */\ntag_9:\n    /* \"#utility.yul\":859:863   */\n  0x00\n    /* \"#utility.yul\":882:885   */\n  dup2\n    /* \"#utility.yul\":874:885   */\n  swap1\n  pop\n    /* \"#utility.yul\":905:908   */\n  dup2\n    /* \"#utility.yul\":902:903   */\n  0x00\n    /* \"#utility.yul\":895:909   */\n  mstore\n    /* \"#utility.yul\":939:943   */\n  0x20\n    /* \"#utility.yul\":936:937   */\n  0x00\n    /* \"#utility.yul\":926:944   */\n  keccak256\n    /* \"#utility.yul\":918:944   */\n  swap1\n  pop\n    /* \"#utility.yul\":810:951   */\n  swap2\n  swap1\n  pop\n  jump\t// out\n    /* \"#utility.yul\":957:1050   */\ntag_10:\n    /* \"#utility.yul\":994:1000   */\n  0x00\n    /* \"#utility.yul\":1041:1043   */\n  0x20\n    /* \"#utility.yul\":1036:1038   */\n  0x1f\n    /* \"#utility.yul\":1029:1034   */\n  dup4\n    /* \"#utility.yul\":1025:1039   */\n  add\n    /* \"#utility.yul\":1021:1044   */\n  div\n    /* \"#utility.yul\":1011:1044   */\n  swap1\n  pop\n    /* \"#utility.yul\":957:1050   */\n  swap2\n  swap1\n  pop\n  jump\t// out\n    /* \"#utility.yul\":1056:1163   */\ntag_11:\n    /* \"#utility.yul\":1100:1108   */\n  0x00\n    /* \"#utility.yul\":1150:1155   */\n  dup3\n    /* \"#utility.yul\":1144:1148   */\n  dup3\n    /* \"#utility.yul\":1140:1156   */\n  shl\n    /* \"#utility.yul\":1119:1156   */\n  swap1\n  pop\n    /* \"#utility.yul\":1056:1163   */\n  swap3\n  swap2\n  pop\n  pop\n  jump\t// out\n    /* \"#utility.yul\":1169:1562   */\ntag_12:\n    /* \"#utility.yul\":1238:1244   */\n  0x00\n    /* \"#utility.yul\":1288:1289   */\n  0x08\n    /* \"#utility.yul\":1276:1286   */\n  dup4\n    /* \"#utility.yul\":1272:1290   */\n  mul\n    /* \"#utility.yul\":1311:1408   */\n  tag_37\n    /* \"#utility.yul\":1341:1407   */\n  0xffffffffffffffffffffffffffffffffffffffffffffffffffffffffffffffff\n    /* \"#utility.yul\":1330:1339   */\n  dup3\n    /* \"#utility.yul\":1311:1408   */\n  tag_11\n  jump\t// in\ntag_37:\n    /* \"#utility.yul\":1429:1468   */\n  tag_38\n    /* \"#utility.yul\":1459:1467   */\n  dup7\n    /* \"#utility.yul\":1448:1457   */\n  dup4\n    /* \"#utility.yul\":1429:1468   */\n  tag_11\n  jump\t// in\ntag_38:\n    /* \"#utility.yul\":1417:1468   */\n  swap6\n  pop\n    /* \"#utility.yul\":1501:1505   */\n  dup1\n    /* \"#utility.yul\":1497:1506   */\n  not\n    /* \"#utility.yul\":1490:1495   */\n  dup5\n    /* \"#utility.yul\":1486:1507   */\n  and\n    /* \"#utility.yul\":1477:1507   */\n  swap4\n  pop\n    /* \"#utility.yul\":1550:1554   */\n  dup1\n    /* \"#utility.yul\":1540:1548   */\n  dup7\n    /* \"#utility.yul\":1536:1555   */\n  and\n    /* \"#utility.yul\":1529:1534   */\n  dup5\n    /* \"#utility.yul\":1526:1556   */\n  or\n    /* \"#utility.yul\":1516:1556   */\n  swap3\n  pop\n    /* \"#utility.yul\":1245:1562   */\n  pop\n  pop\n    /* \"#utility.yul\":1169:1562   */\n  swap4\n  swap3\n  pop\n  pop\n  pop\n  jump\t// out\n    /* \"#utility.yul\":1568:1645   */\ntag_13:\n    /* \"#utility.yul\":1605:1612   */\n  0x00\n    /* \"#utility.yul\":1634:1639   */\n  dup2\n    /* \"#utility.yul\":1623:1639   */\n  swap1\n  pop\n    /* \"#utility.yul\":1568:1645   */\n  swap2\n  swap1\n  pop\n  jump\t// out\n    /* \"#utility.yul\":1651:1711   */\ntag_14:\n    /* \"#utility.yul\":1679:1682   */\n  0x00\n    /* \"#utility.yul\":1700:1705   */\n  dup2\n    /* \"#utility.yul\":1693:1705   */\n  swap1\n  pop\n    /* \"#utility.yul\":1651:1711   */\n  swap2\n  swap1\n  pop\n  jump\t// out\n    /* \"#utility.yul\":1717:1859   */\ntag_15:\n    /* \"#utility.yul\":1767:1776   */\n  0x00\n    /* \"#utility.yul\":1800:1853   */\n  tag_42\n    /* \"#utility.yul\":1818:1852   */\n  tag_43\n    /* \"#utility.yul\":1827:1851   */\n  tag_44\n    /* \"#utility.yul\":1845:1850   */\n  dup5\n    /* \"#utility.yul\":1827:1851   */\n  tag_13\n  jump\t// in\ntag_44:\n    /* \"#utility.yul\":1818:1852   */\n  tag_14\n  jump\t// in\ntag_43:\n    /* \"#utility.yul\":1800:1853   */\n  tag_13\n  jump\t// in\ntag_42:\n    /* \"#utility.yul\":1787:1853   */\n  swap1\n  pop\n    /* \"#utility.yul\":1717:1859   */\n  swap2\n  swap1\n  pop\n  jump\t// out\n    /* \"#utility.yul\":1865:1940   */\ntag_16:\n    /* \"#utility.yul\":1908:1911   */\n  0x00\n    /* \"#utility.yul\":1929:1934   */\n  dup2\n    /* \"#utility.yul\":1922:1934   */\n  swap1\n  pop\n    /* \"#utility.yul\":1865:1940   */\n  swap2\n  swap1\n  pop\n  jump\t// out\n    /* \"#utility.yul\":1946:2215   */\ntag_17:\n    /* \"#utility.yul\":2056:2095   */\n  tag_47\n    /* \"#utility.yul\":2087:2094   */\n  dup4\n    /* \"#utility.yul\":2056:2095   */\n  tag_15\n  jump\t// in\ntag_47:\n    /* \"#utility.yul\":2117:2208   */\n  tag_48\n    /* \"#utility.yul\":2166:2207   */\n  tag_49\n    /* \"#utility.yul\":2190:2206   */\n  dup3\n    /* \"#utility.yul\":2166:2207   */\n  tag_16\n  jump\t// in\ntag_49:\n    /* \"#utility.yul\":2158:2164   */\n  dup5\n    /* \"#utility.yul\":2151:2155   */\n  dup5\n    /* \"#utility.yul\":2145:2156   */\n  sload\n    /* \"#utility.yul\":2117:2208   */\n  tag_12\n  jump\t// in\ntag_48:\n    /* \"#utility.yul\":2111:2115   */\n  dup3\n    /* \"#utility.yul\":2104:2209   */\n  sstore\n    /* \"#utility.yul\":2022:2215   */\n  pop\n    /* \"#utility.yul\":1946:2215   */\n  pop\n  pop\n  pop\n  jump\t// out\n    /* \"#utility.yul\":2221:2294   */\ntag_18:\n    /* \"#utility.yul\":2266:2269   */\n  0x00\n    /* \"#utility.yul\":2221:2294   */\n  swap1\n  jump\t// out\n    /* \"#utility.yul\":2300:2489   */\ntag_19:\n    /* \"#utility.yul\":2377:2409   */\n  tag_52\n  tag_18\n  jump\t// in\ntag_52:\n    /* \"#utility.yul\":2418:2483   */\n  tag_53\n    /* \"#utility.yul\":2476:2482   */\n  dup2\n    /* \"#utility.yul\":2468:2474   */\n  dup5\n    /* \"#utility.yul\":2462:2466   */\n  dup5\n    /* \"#utility.yul\":2418:2483   */\n  tag_17\n  jump\t// in\ntag_53:\n    /* \"#utility.yul\":2353:2489   */\n  pop\n    /* \"#utility.yul\":2300:2489   */\n  pop\n  pop\n  jump\t// out\n    /* \"#utility.yul\":2495:2681   */\ntag_20:\n    /* \"#utility.yul\":2555:2675   */\ntag_55:\n    /* \"#utility.yul\":2572:2575   */\n  dup2\n    /* \"#utility.yul\":2565:2570   */\n  dup2\n    /* \"#utility.yul\":2562:2576   */\n  lt\n    /* \"#utility.yul\":2555:2675   */\n  iszero\n  tag_57\n  jumpi\n    /* \"#utility.yul\":2626:2665   */\n  tag_58\n    /* \"#utility.yul\":2663:2664   */\n  0x00\n    /* \"#utility.yul\":2656:2661   */\n  dup3\n    /* \"#utility.yul\":2626:2665   */\n  tag_19\n  jump\t// in\ntag_58:\n    /* \"#utility.yul\":2599:2600   */\n  0x01\n    /* \"#utility.yul\":2592:2597   */\n  dup2\n    /* \"#utility.yul\":2588:2601   */\n  add\n    /* \"#utility.yul\":2579:2601   */\n  swap1\n  pop\n    /* \"#utility.yul\":2555:2675   */\n  jump(tag_55)\ntag_57:\n    /* \"#utility.yul\":2495:2681   */\n  pop\n  pop\n  jump\t// out\n    /* \"#utility.yul\":2687:3230   */\ntag_21:\n    /* \"#utility.yul\":2788:2790   */\n  0x1f\n    /* \"#utility.yul\":2783:2786   */\n  dup3\n    /* \"#utility.yul\":2780:2791   */\n  gt\n    /* \"#utility.yul\":2777:3223   */\n  iszero\n  tag_60\n  jumpi\n    /* \"#utility.yul\":2822:2860   */\n  tag_61\n    /* \"#utility.yul\":2854:2859   */\n  dup2\n    /* \"#utility.yul\":2822:2860   */\n  tag_9\n  jump\t// in\ntag_61:\n    /* \"#utility.yul\":2906:2935   */\n  tag_62\n    /* \"#utility.yul\":2924:2934   */\n  dup5\n    /* \"#utility.yul\":2906:2935   */\n  tag_10\n  jump\t// in\ntag_62:\n    /* \"#utility.yul\":2896:2904   */\n  dup2\n    /* \"#utility.yul\":2892:2936   */\n  add\n    /* \"#utility.yul\":3089:3091   */\n  0x20\n    /* \"#utility.yul\":3077:3087   */\n  dup6\n    /* \"#utility.yul\":3074:3092   */\n  lt\n    /* \"#utility.yul\":3071:3120   */\n  iszero\n  tag_63\n  jumpi\n    /* \"#utility.yul\":3110:3118   */\n  dup2\n    /* \"#utility.yul\":3095:3118   */\n  swap1\n  pop\n    /* \"#utility.yul\":3071:3120   */\ntag_63:\n    /* \"#utility.yul\":3133:3213   */\n  tag_64\n    /* \"#utility.yul\":3189:3211   */\n  tag_65\n    /* \"#utility.yul\":3207:3210   */\n  dup6\n    /* \"#utility.yul\":3189:3211   */\n  tag_10\n  jump\t// in\ntag_65:\n    /* \"#utility.yul\":3179:3187   */\n  dup4\n    /* \"#utility.yul\":3175:3212   */\n  add\n    /* \"#utility.yul\":3162:3173   */\n  dup3\n    /* \"#utility.yul\":3133:3213   */\n  tag_20\n  jump\t// in\ntag_64:\n    /* \"#utility.yul\":2792:3223   */\n  pop\n  pop\n    /* \"#utility.yul\":2777:3223   */\ntag_60:\n    /* \"#utility.yul\":2687:3230   */\n  pop\n  pop\n  pop\n  jump\t// out\n    /* \"#utility.yul\":3236:3353   */\ntag_22:\n    /* \"#utility.yul\":3290:3298   */\n  0x00\n    /* \"#utility.yul\":3340:3345   */\n  dup3\n    /* \"#utility.yul\":3334:3338   */\n  dup3\n    /* \"#utility.yul\":3330:3346   */\n  shr\n    /* \"#utility.yul\":3309:3346   */\n  swap1\n  pop\n    /* \"#utility.yul\":3236:3353   */\n  swap3\n  swap2\n  pop\n  pop\n  jump\t// out\n    /* \"#utility.yul\":3359:3528   */\ntag_23:\n    /* \"#utility.yul\":3403:3409   */\n  0x00\n    /* \"#utility.yul\":3436:3487   */\n  tag_68\n    /* \"#utility.yul\":3484:3485   */\n  0x00\n    /* \"#utility.yul\":3480:3486   */\n  not\n    /* \"#utility.yul\":3472:3477   */\n  dup5\n    /* \"#utility.yul\":3469:3470   */\n  0x08\n    /* \"#utility.yul\":3465:3478   */\n  mul\n    /* \"#utility.yul\":3436:3487   */\n  tag_22\n  jump\t// in\ntag_68:\n    /* \"#utility.yul\":3432:3488   */\n  not\n    /* \"#utility.yul\":3517:3521   */\n  dup1\n    /* \"#utility.yul\":3511:3515   */\n  dup4\n    /* \"#utility.yul\":3507:3522   */\n  and\n    /* \"#utility.yul\":3497:3522   */\n  swap2\n  pop\n    /* \"#utility.yul\":3410:3528   */\n  pop\n    /* \"#utility.yul\":3359:3528   */\n  swap3\n  swap2\n  pop\n  pop\n  jump\t// out\n    /* \"#utility.yul\":3533:3828   */\ntag_24:\n    /* \"#utility.yul\":3609:3613   */\n  0x00\n    /* \"#utility.yul\":3755:3784   */\n  tag_70\n    /* \"#utility.yul\":3780:3783   */\n  dup4\n    /* \"#utility.yul\":3774:3778   */\n  dup4\n    /* \"#utility.yul\":3755:3784   */\n  tag_23\n  jump\t// in\ntag_70:\n    /* \"#utility.yul\":3747:3784   */\n  swap2\n  pop\n    /* \"#utility.yul\":3817:3820   */\n  dup3\n    /* \"#utility.yul\":3814:3815   */\n  0x02\n    /* \"#utility.yul\":3810:3821   */\n  mul\n    /* \"#utility.yul\":3804:3808   */\n  dup3\n    /* \"#utility.yul\":3801:3822   */\n  or\n    /* \"#utility.yul\":3793:3822   */\n  swap1\n  pop\n    /* \"#utility.yul\":3533:3828   */\n  swap3\n  swap2\n  pop\n  pop\n  jump\t// out\n    /* \"#utility.yul\":3833:5228   */\ntag_2:\n    /* \"#utility.yul\":3950:3987   */\n  tag_72\n    /* \"#utility.yul\":3983:3986   */\n  dup3\n    /* \"#utility.yul\":3950:3987   */\n  tag_5\n  jump\t// in\ntag_72:\n    /* \"#utility.yul\":4052:4070   */\n  0xffffffffffffffff\n    /* \"#utility.yul\":4044:4050   */\n  dup2\n    /* \"#utility.yul\":4041:4071   */\n  gt\n    /* \"#utility.yul\":4038:4094   */\n  iszero\n  tag_73\n  jumpi\n    /* \"#utility.yul\":4074:4092   */\n  tag_74\n  tag_6\n  jump\t// in\ntag_74:\n    /* \"#utility.yul\":4038:4094   */\ntag_73:\n    /* \"#utility.yul\":4118:4156   */\n  tag_75\n    /* \"#utility.yul\":4150:4154   */\n  dup3\n    /* \"#utility.yul\":4144:4155   */\n  sload\n    /* \"#utility.yul\":4118:4156   */\n  tag_8\n  jump\t// in\ntag_75:\n    /* \"#utility.yul\":4203:4270   */\n  tag_76\n    /* \"#utility.yul\":4263:4269   */\n  dup3\n    /* \"#utility.yul\":4255:4261   */\n  dup3\n    /* \"#utility.yul\":4249:4253   */\n  dup6\n    /* \"#utility.yul\":4203:4270   */\n  tag_21\n  jump\t// in\ntag_76:\n    /* \"#utility.yul\":4297:4298   */\n  0x00\n    /* \"#utility.yul\":4321:4325   */\n  0x20\n    /* \"#utility.yul\":4308:4325   */\n  swap1\n  pop\n    /* \"#utility.yul\":4353:4355   */\n  0x1f\n    /* \"#utility.yul\":4345:4351   */\n  dup4\n    /* \"#utility.yul\":4342:4356   */\n  gt\n    /* \"#utility.yul\":4370:4371   */\n  0x01\n    /* \"#utility.yul\":4365:4983   */\n  dup2\n  eq\n  tag_78\n  jumpi\n    /* \"#utility.yul\":5027:5028   */\n  0x00\n    /* \"#utility.yul\":5044:5050   */\n  dup5\n    /* \"#utility.yul\":5041:5118   */\n  iszero\n  tag_79\n  jumpi\n    /* \"#utility.yul\":5093:5102   */\n  dup3\n    /* \"#utility.yul\":5088:5091   */\n  dup8\n    /* \"#utility.yul\":5084:5103   */\n  add\n    /* \"#utility.yul\":5078:5104   */\n  mload\n    /* \"#utility.yul\":5069:5104   */\n  swap1\n  pop\n    /* \"#utility.yul\":5041:5118   */\ntag_79:\n    /* \"#utility.yul\":5144:5211   */\n  tag_80\n    /* \"#utility.yul\":5204:5210   */\n  dup6\n    /* \"#utility.yul\":5197:5202   */\n  dup3\n    /* \"#utility.yul\":5144:5211   */\n  tag_24\n  jump\t// in\ntag_80:\n    /* \"#utility.yul\":5138:5142   */\n  dup7\n    /* \"#utility.yul\":5131:5212   */\n  sstore\n    /* \"#utility.yul\":5000:5222   */\n  pop\n    /* \"#utility.yul\":4335:5222   */\n  jump(tag_77)\n    /* \"#utility.yul\":4365:4983   */\ntag_78:\n    /* \"#utility.yul\":4417:4421   */\n  0x1f\n    /* \"#utility.yul\":4413:4422   */\n  not\n    /* \"#utility.yul\":4405:4411   */\n  dup5\n    /* \"#utility.yul\":4401:4423   */\n  and\n    /* \"#utility.yul\":4451:4488   */\n  tag_81\n    /* \"#utility.yul\":4483:4487   */\n  dup7\n    /* \"#utility.yul\":4451:4488   */\n  tag_9\n  jump\t// in\ntag_81:\n    /* \"#utility.yul\":4510:4511   */\n  0x00\n    /* \"#utility.yul\":4524:4732   */\ntag_82:\n    /* \"#utility.yul\":4538:4545   */\n  dup3\n    /* \"#utility.yul\":4535:4536   */\n  dup2\n    /* \"#utility.yul\":4532:4546   */\n  lt\n    /* \"#utility.yul\":4524:4732   */\n  iszero\n  tag_84\n  jumpi\n    /* \"#utility.yul\":4617:4626   */\n  dup5\n    /* \"#utility.yul\":4612:4615   */\n  dup10\n    /* \"#utility.yul\":4608:4627   */\n  add\n    /* \"#utility.yul\":4602:4628   */\n  mload\n    /* \"#utility.yul\":4594:4600   */\n  dup3\n    /* \"#utility.yul\":4587:4629   */\n  sstore\n    /* \"#utility.yul\":4668:4669   */\n  0x01\n    /* \"#utility.yul\":4660:4666   */\n  dup3\n    /* \"#utility.yul\":4656:4670   */\n  add\n    /* \"#utility.yul\":4646:4670   */\n  swap2\n  pop\n    /* \"#utility.yul\":4715:4717   */\n  0x20\n    /* \"#utility.yul\":4704:4713   */\n  dup6\n    /* \"#utility.yul\":4700:4718   */\n  add\n    /* \"#utility.yul\":4687:4718   */\n  swap5\n  pop\n    /* \"#utility.yul\":4561:4565   */\n  0x20\n    /* \"#utility.yul\":4558:4559   */\n  dup2\n    /* \"#utility.yul\":4554:4566   */\n  add\n    /* \"#utility.yul\":4549:4566   */\n  swap1\n  pop\n    /* \"#utility.yul\":4524:4732   */\n  jump(tag_82)\ntag_84:\n    /* \"#utility.yul\":4760:4766   */\n  dup7\n    /* \"#utility.yul\":4751:4758   */\n  dup4\n    /* \"#utility.yul\":4748:4767   */\n  lt\n    /* \"#utility.yul\":4745:4924   */\n  iszero\n  tag_85\n  jumpi\n    /* \"#utility.yul\":4818:4827   */\n  dup5\n    /* \"#utility.yul\":4813:4816   */\n  dup10\n    /* \"#utility.yul\":4809:4828   */\n  add\n    /* \"#utility.yul\":4803:4829   */\n  mload\n    /* \"#utility.yul\":4861:4909   */\n  tag_86\n    /* \"#utility.yul\":4903:4907   */\n  0x1f\n    /* \"#utility.yul\":4895:4901   */\n  dup10\n    /* \"#utility.yul\":4891:4908   */\n  and\n    /* \"#utility.yul\":4880:4889   */\n  dup3\n    /* \"#utility.yul\":4861:4909   */\n  tag_23\n  jump\t// in\ntag_86:\n    /* \"#utility.yul\":4853:4859   */\n  dup4\n    /* \"#utility.yul\":4846:4910   */\n  sstore\n    /* \"#utility.yul\":4768:4924   */\n  pop\n    /* \"#utility.yul\":4745:4924   */\ntag_85:\n    /* \"#utility.yul\":4970:4971   */\n  0x01\n    /* \"#utility.yul\":4966:4967   */\n  0x02\n    /* \"#utility.yul\":4958:4964   */\n  dup9\n    /* \"#utility.yul\":4954:4968   */\n  mul\n    /* \"#utility.yul\":4950:4972   */\n  add\n    /* \"#utility.yul\":4944:4948   */\n  dup9\n    /* \"#utility.yul\":4937:4973   */\n  sstore\n    /* \"#utility.yul\":4372:4983   */\n  pop\n  pop\n  pop\n    /* \"#utility.yul\":4335:5222   */\ntag_77:\n  pop\n    /* \"#utility.yul\":3925:5228   */\n  pop\n  pop\n  pop\n    /* \"#utility.yul\":3833:5228   */\n  pop\n  pop\n  jump\t// out\n    /* \"remix-simple-storage-cu-2024/contracts/SimpleStorage.sol\":268:1603  contract SimpleStorage {... */\ntag_4:\n  dataSize(sub_0)\n  dup1\n  dataOffset(sub_0)\n  0x00\n  codecopy\n  0x00\n  return\nstop\n\nsub_0: assembly {\n        /* \"remix-simple-storage-cu-2024/contracts/SimpleStorage.sol\":268:1603  contract SimpleStorage {... */\n      mstore(0x40, 0x80)\n      callvalue\n      dup1\n      iszero\n      tag_1\n      jumpi\n      0x00\n      dup1\n      revert\n    tag_1:\n      pop\n      jumpi(tag_2, lt(calldatasize, 0x04))\n      shr(0xe0, calldataload(0x00))\n      dup1\n      0x678aa4b8\n      gt\n      tag_10\n      jumpi\n      dup1\n      0x678aa4b8\n      eq\n      tag_6\n      jumpi\n      dup1\n      0x6f760f41\n      eq\n      tag_7\n      jumpi\n      dup1\n      0x85c3c411\n      eq\n      tag_8\n      jumpi\n      dup1\n      0xda27ae76\n      eq\n      tag_9\n      jumpi\n      jump(tag_2)\n    tag_10:\n      dup1\n      0x2e64cec1\n      eq\n      tag_3\n      jumpi\n      dup1\n      0x510f17c5\n      eq\n      tag_4\n      jumpi\n      dup1\n      0x6057361d\n      eq\n      tag_5\n      jumpi\n    tag_2:\n      0x00\n      dup1\n      revert\n        /* \"remix-simple-storage-cu-2024/contracts/SimpleStorage.sol\":1184:1270  function retrieve() public view returns(uint256){... */\n    tag_3:\n      tag_11\n      tag_12\n      jump\t// in\n    tag_11:\n      mload(0x40)\n      tag_13\n      swap2\n      swap1\n      tag_14\n      jump\t// in\n    tag_13:\n      mload(0x40)\n      dup1\n      swap2\n      sub\n      swap1\n      return\n        /* \"remix-simple-storage-cu-2024/contracts/SimpleStorage.sol\":746:775  Person[] public listOfPersons */\n    tag_4:\n      tag_15\n      0x04\n      dup1\n      calldatasize\n      sub\n      dup2\n      add\n      swap1\n      tag_16\n      swap2\n      swap1\n      tag_17\n      jump\t// in\n    tag_16:\n      tag_18\n      jump\t// in\n    tag_15:\n      mload(0x40)\n      tag_19\n      swap3\n      swap2\n      swap1\n      tag_20\n      jump\t// in\n    tag_19:\n      mload(0x40)\n      dup1\n      swap2\n      sub\n      swap1\n      return\n        /* \"remix-simple-storage-cu-2024/contracts/SimpleStorage.sol\":878:1007  function store(uint256 _favoriteNumber) public{... */\n    tag_5:\n      tag_21\n      0x04\n      dup1\n      calldatasize\n      sub\n      dup2\n      add\n      swap1\n      tag_22\n      swap2\n      swap1\n      tag_17\n      jump\t// in\n    tag_22:\n      tag_23\n      jump\t// in\n    tag_21:\n      stop\n        /* \"remix-simple-storage-cu-2024/contracts/SimpleStorage.sol\":781:855  mapping(string name => uint256 favoriteNumber) public nameToFavoritenumber */\n    tag_6:\n      tag_24\n      0x04\n      dup1\n      calldatasize\n      sub\n      dup2\n      add\n      swap1\n      tag_25\n      swap2\n      swap1\n      tag_26\n      jump\t// in\n    tag_25:\n      tag_27\n      jump\t// in\n    tag_24:\n      mload(0x40)\n      tag_28\n      swap2\n      swap1\n      tag_14\n      jump\t// in\n    tag_28:\n      mload(0x40)\n      dup1\n      swap2\n      sub\n      swap1\n      return\n        /* \"remix-simple-storage-cu-2024/contracts/SimpleStorage.sol\":1276:1601  function addPerson(string calldata _name, uint256 _myFavoriteNumber) public {... */\n    tag_7:\n      tag_29\n      0x04\n      dup1\n      calldatasize\n      sub\n      dup2\n      add\n      swap1\n      tag_30\n      swap2\n      swap1\n      tag_31\n      jump\t// in\n    tag_30:\n      tag_32\n      jump\t// in\n    tag_29:\n      stop\n        /* \"remix-simple-storage-cu-2024/contracts/SimpleStorage.sol\":360:397  bool public hasFavoriteNumber = false */\n    tag_8:\n      tag_33\n      tag_34\n      jump\t// in\n    tag_33:\n      mload(0x40)\n      tag_35\n      swap2\n      swap1\n      tag_36\n      jump\t// in\n    tag_35:\n      mload(0x40)\n      dup1\n      swap2\n      sub\n      swap1\n      return\n        /* \"remix-simple-storage-cu-2024/contracts/SimpleStorage.sol\":1013:1178  function storeAndPlus(uint256 _favoriteNumber) public{... */\n    tag_9:\n      tag_37\n      0x04\n      dup1\n      calldatasize\n      sub\n      dup2\n      add\n      swap1\n      tag_38\n      swap2\n      swap1\n      tag_17\n      jump\t// in\n    tag_38:\n      tag_39\n      jump\t// in\n    tag_37:\n      stop\n        /* \"remix-simple-storage-cu-2024/contracts/SimpleStorage.sol\":1184:1270  function retrieve() public view returns(uint256){... */\n    tag_12:\n        /* \"remix-simple-storage-cu-2024/contracts/SimpleStorage.sol\":1224:1231  uint256 */\n      0x00\n        /* \"remix-simple-storage-cu-2024/contracts/SimpleStorage.sol\":1249:1263  favoriteNumber */\n      sload(0x01)\n        /* \"remix-simple-storage-cu-2024/contracts/SimpleStorage.sol\":1242:1263  return favoriteNumber */\n      swap1\n      pop\n        /* \"remix-simple-storage-cu-2024/contracts/SimpleStorage.sol\":1184:1270  function retrieve() public view returns(uint256){... */\n      swap1\n      jump\t// out\n        /* \"remix-simple-storage-cu-2024/contracts/SimpleStorage.sol\":746:775  Person[] public listOfPersons */\n    tag_18:\n      0x06\n      dup2\n      dup2\n      sload\n      dup2\n      lt\n      tag_41\n      jumpi\n      0x00\n      dup1\n      revert\n    tag_41:\n      swap1\n      0x00\n      mstore\n      keccak256(0x00, 0x20)\n      swap1\n      0x02\n      mul\n      add\n      0x00\n      swap2\n      pop\n      swap1\n      pop\n      dup1\n      0x00\n      add\n      dup1\n      sload\n      tag_43\n      swap1\n      tag_44\n      jump\t// in\n    tag_43:\n      dup1\n      0x1f\n      add\n      0x20\n      dup1\n      swap2\n      div\n      mul\n      0x20\n      add\n      mload(0x40)\n      swap1\n      dup2\n      add\n      0x40\n      mstore\n      dup1\n      swap3\n      swap2\n      swap1\n      dup2\n      dup2\n      mstore\n      0x20\n      add\n      dup3\n      dup1\n      sload\n      tag_45\n      swap1\n      tag_44\n      jump\t// in\n    tag_45:\n      dup1\n      iszero\n      tag_46\n      jumpi\n      dup1\n      0x1f\n      lt\n      tag_47\n      jumpi\n      0x0100\n      dup1\n      dup4\n      sload\n      div\n      mul\n      dup4\n      mstore\n      swap2\n      0x20\n      add\n      swap2\n      jump(tag_46)\n    tag_47:\n      dup3\n      add\n      swap2\n      swap1\n      0x00\n      mstore\n      keccak256(0x00, 0x20)\n      swap1\n    tag_48:\n      dup2\n      sload\n      dup2\n      mstore\n      swap1\n      0x01\n      add\n      swap1\n      0x20\n      add\n      dup1\n      dup4\n      gt\n      tag_48\n      jumpi\n      dup3\n      swap1\n      sub\n      0x1f\n      and\n      dup3\n      add\n      swap2\n    tag_46:\n      pop\n      pop\n      pop\n      pop\n      pop\n      swap1\n      dup1\n      0x01\n      add\n      sload\n      swap1\n      pop\n      dup3\n      jump\t// out\n        /* \"remix-simple-storage-cu-2024/contracts/SimpleStorage.sol\":878:1007  function store(uint256 _favoriteNumber) public{... */\n    tag_23:\n        /* \"remix-simple-storage-cu-2024/contracts/SimpleStorage.sol\":951:966  _favoriteNumber */\n      dup1\n        /* \"remix-simple-storage-cu-2024/contracts/SimpleStorage.sol\":934:948  favoriteNumber */\n      0x01\n        /* \"remix-simple-storage-cu-2024/contracts/SimpleStorage.sol\":934:966  favoriteNumber = _favoriteNumber */\n      dup2\n      swap1\n      sstore\n      pop\n        /* \"remix-simple-storage-cu-2024/contracts/SimpleStorage.sol\":996:1000  true */\n      0x01\n        /* \"remix-simple-storage-cu-2024/contracts/SimpleStorage.sol\":976:993  hasFavoriteNumber */\n      0x00\n      dup1\n        /* \"remix-simple-storage-cu-2024/contracts/SimpleStorage.sol\":976:1000  hasFavoriteNumber = true */\n      0x0100\n      exp\n      dup2\n      sload\n      dup2\n      0xff\n      mul\n      not\n      and\n      swap1\n      dup4\n      iszero\n      iszero\n      mul\n      or\n      swap1\n      sstore\n      pop\n        /* \"remix-simple-storage-cu-2024/contracts/SimpleStorage.sol\":878:1007  function store(uint256 _favoriteNumber) public{... */\n      pop\n      jump\t// out\n        /* \"remix-simple-storage-cu-2024/contracts/SimpleStorage.sol\":781:855  mapping(string name => uint256 favoriteNumber) public nameToFavoritenumber */\n    tag_27:\n      0x07\n      dup2\n      dup1\n      mload\n      0x20\n      dup2\n      add\n      dup3\n      add\n      dup1\n      mload\n      dup5\n      dup3\n      mstore\n      0x20\n      dup4\n      add\n      0x20\n      dup6\n      add\n      keccak256\n      dup2\n      dup4\n      mstore\n      dup1\n      swap6\n      pop\n      pop\n      pop\n      pop\n      pop\n      pop\n      0x00\n      swap2\n      pop\n      swap1\n      pop\n      sload\n      dup2\n      jump\t// out\n        /* \"remix-simple-storage-cu-2024/contracts/SimpleStorage.sol\":1276:1601  function addPerson(string calldata _name, uint256 _myFavoriteNumber) public {... */\n    tag_32:\n        /* \"remix-simple-storage-cu-2024/contracts/SimpleStorage.sol\":1459:1472  listOfPersons */\n      0x06\n        /* \"remix-simple-storage-cu-2024/contracts/SimpleStorage.sol\":1478:1536  Person({name: _name, myFavoriteNumber: _myFavoriteNumber}) */\n      mload(0x40)\n      dup1\n      0x40\n      add\n      0x40\n      mstore\n      dup1\n        /* \"remix-simple-storage-cu-2024/contracts/SimpleStorage.sol\":1492:1497  _name */\n      dup6\n      dup6\n        /* \"remix-simple-storage-cu-2024/contracts/SimpleStorage.sol\":1478:1536  Person({name: _name, myFavoriteNumber: _myFavoriteNumber}) */\n      dup1\n      dup1\n      0x1f\n      add\n      0x20\n      dup1\n      swap2\n      div\n      mul\n      0x20\n      add\n      mload(0x40)\n      swap1\n      dup2\n      add\n      0x40\n      mstore\n      dup1\n      swap4\n      swap3\n      swap2\n      swap1\n      dup2\n      dup2\n      mstore\n      0x20\n      add\n      dup4\n      dup4\n      dup1\n      dup3\n      dup5\n      calldatacopy\n      0x00\n      dup2\n      dup5\n      add\n      mstore\n      not(0x1f)\n      0x1f\n      dup3\n      add\n      and\n      swap1\n      pop\n      dup1\n      dup4\n      add\n      swap3\n      pop\n      pop\n      pop\n      pop\n      pop\n      pop\n      pop\n      dup2\n      mstore\n      0x20\n      add\n        /* \"remix-simple-storage-cu-2024/contracts/SimpleStorage.sol\":1517:1534  _myFavoriteNumber */\n      dup4\n        /* \"remix-simple-storage-cu-2024/contracts/SimpleStorage.sol\":1478:1536  Person({name: _name, myFavoriteNumber: _myFavoriteNumber}) */\n      dup2\n      mstore\n      pop\n        /* \"remix-simple-storage-cu-2024/contracts/SimpleStorage.sol\":1459:1537  listOfPersons.push(Person({name: _name, myFavoriteNumber: _myFavoriteNumber})) */\n      swap1\n      dup1\n      0x01\n      dup2\n      sload\n      add\n      dup1\n      dup3\n      sstore\n      dup1\n      swap2\n      pop\n      pop\n      0x01\n      swap1\n      sub\n      swap1\n      0x00\n      mstore\n      keccak256(0x00, 0x20)\n      swap1\n      0x02\n      mul\n      add\n      0x00\n      swap1\n      swap2\n      swap1\n      swap2\n      swap1\n      swap2\n      pop\n      0x00\n      dup3\n      add\n      mload\n      dup2\n      0x00\n      add\n      swap1\n      dup2\n      tag_52\n      swap2\n      swap1\n      tag_53\n      jump\t// in\n    tag_52:\n      pop\n      0x20\n      dup3\n      add\n      mload\n      dup2\n      0x01\n      add\n      sstore\n      pop\n      pop\n        /* \"remix-simple-storage-cu-2024/contracts/SimpleStorage.sol\":1577:1594  _myFavoriteNumber */\n      dup1\n        /* \"remix-simple-storage-cu-2024/contracts/SimpleStorage.sol\":1547:1567  nameToFavoritenumber */\n      0x07\n        /* \"remix-simple-storage-cu-2024/contracts/SimpleStorage.sol\":1568:1573  _name */\n      dup5\n      dup5\n        /* \"remix-simple-storage-cu-2024/contracts/SimpleStorage.sol\":1547:1574  nameToFavoritenumber[_name] */\n      mload(0x40)\n      tag_54\n      swap3\n      swap2\n      swap1\n      tag_55\n      jump\t// in\n    tag_54:\n      swap1\n      dup2\n      mstore\n      0x20\n      add\n      mload(0x40)\n      dup1\n      swap2\n      sub\n      swap1\n      keccak256\n        /* \"remix-simple-storage-cu-2024/contracts/SimpleStorage.sol\":1547:1594  nameToFavoritenumber[_name] = _myFavoriteNumber */\n      dup2\n      swap1\n      sstore\n      pop\n        /* \"remix-simple-storage-cu-2024/contracts/SimpleStorage.sol\":1276:1601  function addPerson(string calldata _name, uint256 _myFavoriteNumber) public {... */\n      pop\n      pop\n      pop\n      jump\t// out\n        /* \"remix-simple-storage-cu-2024/contracts/SimpleStorage.sol\":360:397  bool public hasFavoriteNumber = false */\n    tag_34:\n      0x00\n      dup1\n      sload\n      swap1\n      0x0100\n      exp\n      swap1\n      div\n      0xff\n      and\n      dup2\n      jump\t// out\n        /* \"remix-simple-storage-cu-2024/contracts/SimpleStorage.sol\":1013:1178  function storeAndPlus(uint256 _favoriteNumber) public{... */\n    tag_39:\n        /* \"remix-simple-storage-cu-2024/contracts/SimpleStorage.sol\":1093:1108  _favoriteNumber */\n      dup1\n        /* \"remix-simple-storage-cu-2024/contracts/SimpleStorage.sol\":1076:1090  favoriteNumber */\n      0x01\n        /* \"remix-simple-storage-cu-2024/contracts/SimpleStorage.sol\":1076:1108  favoriteNumber = _favoriteNumber */\n      dup2\n      swap1\n      sstore\n      pop\n        /* \"remix-simple-storage-cu-2024/contracts/SimpleStorage.sol\":1136:1137  1 */\n      0x01\n        /* \"remix-simple-storage-cu-2024/contracts/SimpleStorage.sol\":1118:1132  favoriteNumber */\n      dup1\n      0x00\n        /* \"remix-simple-storage-cu-2024/contracts/SimpleStorage.sol\":1118:1137  favoriteNumber += 1 */\n      dup3\n      dup3\n      sload\n      tag_57\n      swap2\n      swap1\n      tag_58\n      jump\t// in\n    tag_57:\n      swap3\n      pop\n      pop\n      dup2\n      swap1\n      sstore\n      pop\n        /* \"remix-simple-storage-cu-2024/contracts/SimpleStorage.sol\":1167:1171  true */\n      0x01\n        /* \"remix-simple-storage-cu-2024/contracts/SimpleStorage.sol\":1147:1164  hasFavoriteNumber */\n      0x00\n      dup1\n        /* \"remix-simple-storage-cu-2024/contracts/SimpleStorage.sol\":1147:1171  hasFavoriteNumber = true */\n      0x0100\n      exp\n      dup2\n      sload\n      dup2\n      0xff\n      mul\n      not\n      and\n      swap1\n      dup4\n      iszero\n      iszero\n      mul\n      or\n      swap1\n      sstore\n      pop\n        /* \"remix-simple-storage-cu-2024/contracts/SimpleStorage.sol\":1013:1178  function storeAndPlus(uint256 _favoriteNumber) public{... */\n      pop\n      jump\t// out\n        /* \"#utility.yul\":7:84   */\n    tag_59:\n        /* \"#utility.yul\":44:51   */\n      0x00\n        /* \"#utility.yul\":73:78   */\n      dup2\n        /* \"#utility.yul\":62:78   */\n      swap1\n      pop\n        /* \"#utility.yul\":7:84   */\n      swap2\n      swap1\n      pop\n      jump\t// out\n        /* \"#utility.yul\":90:208   */\n    tag_60:\n        /* \"#utility.yul\":177:201   */\n      tag_107\n        /* \"#utility.yul\":195:200   */\n      dup2\n        /* \"#utility.yul\":177:201   */\n      tag_59\n      jump\t// in\n    tag_107:\n        /* \"#utility.yul\":172:175   */\n      dup3\n        /* \"#utility.yul\":165:202   */\n      mstore\n        /* \"#utility.yul\":90:208   */\n      pop\n      pop\n      jump\t// out\n        /* \"#utility.yul\":214:436   */\n    tag_14:\n        /* \"#utility.yul\":307:311   */\n      0x00\n        /* \"#utility.yul\":345:347   */\n      0x20\n        /* \"#utility.yul\":334:343   */\n      dup3\n        /* \"#utility.yul\":330:348   */\n      add\n        /* \"#utility.yul\":322:348   */\n      swap1\n      pop\n        /* \"#utility.yul\":358:429   */\n      tag_109\n        /* \"#utility.yul\":426:427   */\n      0x00\n        /* \"#utility.yul\":415:424   */\n      dup4\n        /* \"#utility.yul\":411:428   */\n      add\n        /* \"#utility.yul\":402:408   */\n      dup5\n        /* \"#utility.yul\":358:429   */\n      tag_60\n      jump\t// in\n    tag_109:\n        /* \"#utility.yul\":214:436   */\n      swap3\n      swap2\n      pop\n      pop\n      jump\t// out\n        /* \"#utility.yul\":442:517   */\n    tag_61:\n        /* \"#utility.yul\":475:481   */\n      0x00\n        /* \"#utility.yul\":508:510   */\n      0x40\n        /* \"#utility.yul\":502:511   */\n      mload\n        /* \"#utility.yul\":492:511   */\n      swap1\n      pop\n        /* \"#utility.yul\":442:517   */\n      swap1\n      jump\t// out\n        /* \"#utility.yul\":523:640   */\n    tag_62:\n        /* \"#utility.yul\":632:633   */\n      0x00\n        /* \"#utility.yul\":629:630   */\n      dup1\n        /* \"#utility.yul\":622:634   */\n      revert\n        /* \"#utility.yul\":646:763   */\n    tag_63:\n        /* \"#utility.yul\":755:756   */\n      0x00\n        /* \"#utility.yul\":752:753   */\n      dup1\n        /* \"#utility.yul\":745:757   */\n      revert\n        /* \"#utility.yul\":769:891   */\n    tag_64:\n        /* \"#utility.yul\":842:866   */\n      tag_114\n        /* \"#utility.yul\":860:865   */\n      dup2\n        /* \"#utility.yul\":842:866   */\n      tag_59\n      jump\t// in\n    tag_114:\n        /* \"#utility.yul\":835:840   */\n      dup2\n        /* \"#utility.yul\":832:867   */\n      eq\n        /* \"#utility.yul\":822:885   */\n      tag_115\n      jumpi\n        /* \"#utility.yul\":881:882   */\n      0x00\n        /* \"#utility.yul\":878:879   */\n      dup1\n        /* \"#utility.yul\":871:883   */\n      revert\n        /* \"#utility.yul\":822:885   */\n    tag_115:\n        /* \"#utility.yul\":769:891   */\n      pop\n      jump\t// out\n        /* \"#utility.yul\":897:1036   */\n    tag_65:\n        /* \"#utility.yul\":943:948   */\n      0x00\n        /* \"#utility.yul\":981:987   */\n      dup2\n        /* \"#utility.yul\":968:988   */\n      calldataload\n        /* \"#utility.yul\":959:988   */\n      swap1\n      pop\n        /* \"#utility.yul\":997:1030   */\n      tag_117\n        /* \"#utility.yul\":1024:1029   */\n      dup2\n        /* \"#utility.yul\":997:1030   */\n      tag_64\n      jump\t// in\n    tag_117:\n        /* \"#utility.yul\":897:1036   */\n      swap3\n      swap2\n      pop\n      pop\n      jump\t// out\n        /* \"#utility.yul\":1042:1371   */\n    tag_17:\n        /* \"#utility.yul\":1101:1107   */\n      0x00\n        /* \"#utility.yul\":1150:1152   */\n      0x20\n        /* \"#utility.yul\":1138:1147   */\n      dup3\n        /* \"#utility.yul\":1129:1136   */\n      dup5\n        /* \"#utility.yul\":1125:1148   */\n      sub\n        /* \"#utility.yul\":1121:1153   */\n      slt\n        /* \"#utility.yul\":1118:1237   */\n      iszero\n      tag_119\n      jumpi\n        /* \"#utility.yul\":1156:1235   */\n      tag_120\n      tag_62\n      jump\t// in\n    tag_120:\n        /* \"#utility.yul\":1118:1237   */\n    tag_119:\n        /* \"#utility.yul\":1276:1277   */\n      0x00\n        /* \"#utility.yul\":1301:1354   */\n      tag_121\n        /* \"#utility.yul\":1346:1353   */\n      dup5\n        /* \"#utility.yul\":1337:1343   */\n      dup3\n        /* \"#utility.yul\":1326:1335   */\n      dup6\n        /* \"#utility.yul\":1322:1344   */\n      add\n        /* \"#utility.yul\":1301:1354   */\n      tag_65\n      jump\t// in\n    tag_121:\n        /* \"#utility.yul\":1291:1354   */\n      swap2\n      pop\n        /* \"#utility.yul\":1247:1364   */\n      pop\n        /* \"#utility.yul\":1042:1371   */\n      swap3\n      swap2\n      pop\n      pop\n      jump\t// out\n        /* \"#utility.yul\":1377:1476   */\n    tag_66:\n        /* \"#utility.yul\":1429:1435   */\n      0x00\n        /* \"#utility.yul\":1463:1468   */\n      dup2\n        /* \"#utility.yul\":1457:1469   */\n      mload\n        /* \"#utility.yul\":1447:1469   */\n      swap1\n      pop\n        /* \"#utility.yul\":1377:1476   */\n      swap2\n      swap1\n      pop\n      jump\t// out\n        /* \"#utility.yul\":1482:1651   */\n    tag_67:\n        /* \"#utility.yul\":1566:1577   */\n      0x00\n        /* \"#utility.yul\":1600:1606   */\n      dup3\n        /* \"#utility.yul\":1595:1598   */\n      dup3\n        /* \"#utility.yul\":1588:1607   */\n      mstore\n        /* \"#utility.yul\":1640:1644   */\n      0x20\n        /* \"#utility.yul\":1635:1638   */\n      dup3\n        /* \"#utility.yul\":1631:1645   */\n      add\n        /* \"#utility.yul\":1616:1645   */\n      swap1\n      pop\n        /* \"#utility.yul\":1482:1651   */\n      swap3\n      swap2\n      pop\n      pop\n      jump\t// out\n        /* \"#utility.yul\":1657:1903   */\n    tag_68:\n        /* \"#utility.yul\":1738:1739   */\n      0x00\n        /* \"#utility.yul\":1748:1861   */\n    tag_125:\n        /* \"#utility.yul\":1762:1768   */\n      dup4\n        /* \"#utility.yul\":1759:1760   */\n      dup2\n        /* \"#utility.yul\":1756:1769   */\n      lt\n        /* \"#utility.yul\":1748:1861   */\n      iszero\n      tag_127\n      jumpi\n        /* \"#utility.yul\":1847:1848   */\n      dup1\n        /* \"#utility.yul\":1842:1845   */\n      dup3\n        /* \"#utility.yul\":1838:1849   */\n      add\n        /* \"#utility.yul\":1832:1850   */\n      mload\n        /* \"#utility.yul\":1828:1829   */\n      dup2\n        /* \"#utility.yul\":1823:1826   */\n      dup5\n        /* \"#utility.yul\":1819:1830   */\n      add\n        /* \"#utility.yul\":1812:1851   */\n      mstore\n        /* \"#utility.yul\":1784:1786   */\n      0x20\n        /* \"#utility.yul\":1781:1782   */\n      dup2\n        /* \"#utility.yul\":1777:1787   */\n      add\n        /* \"#utility.yul\":1772:1787   */\n      swap1\n      pop\n        /* \"#utility.yul\":1748:1861   */\n      jump(tag_125)\n    tag_127:\n        /* \"#utility.yul\":1895:1896   */\n      0x00\n        /* \"#utility.yul\":1886:1892   */\n      dup5\n        /* \"#utility.yul\":1881:1884   */\n      dup5\n        /* \"#utility.yul\":1877:1893   */\n      add\n        /* \"#utility.yul\":1870:1897   */\n      mstore\n        /* \"#utility.yul\":1719:1903   */\n      pop\n        /* \"#utility.yul\":1657:1903   */\n      pop\n      pop\n      pop\n      jump\t// out\n        /* \"#utility.yul\":1909:2011   */\n    tag_69:\n        /* \"#utility.yul\":1950:1956   */\n      0x00\n        /* \"#utility.yul\":2001:2003   */\n      0x1f\n        /* \"#utility.yul\":1997:2004   */\n      not\n        /* \"#utility.yul\":1992:1994   */\n      0x1f\n        /* \"#utility.yul\":1985:1990   */\n      dup4\n        /* \"#utility.yul\":1981:1995   */\n      add\n        /* \"#utility.yul\":1977:2005   */\n      and\n        /* \"#utility.yul\":1967:2005   */\n      swap1\n      pop\n        /* \"#utility.yul\":1909:2011   */\n      swap2\n      swap1\n      pop\n      jump\t// out\n        /* \"#utility.yul\":2017:2394   */\n    tag_70:\n        /* \"#utility.yul\":2105:2108   */\n      0x00\n        /* \"#utility.yul\":2133:2172   */\n      tag_130\n        /* \"#utility.yul\":2166:2171   */\n      dup3\n        /* \"#utility.yul\":2133:2172   */\n      tag_66\n      jump\t// in\n    tag_130:\n        /* \"#utility.yul\":2188:2259   */\n      tag_131\n        /* \"#utility.yul\":2252:2258   */\n      dup2\n        /* \"#utility.yul\":2247:2250   */\n      dup6\n        /* \"#utility.yul\":2188:2259   */\n      tag_67\n      jump\t// in\n    tag_131:\n        /* \"#utility.yul\":2181:2259   */\n      swap4\n      pop\n        /* \"#utility.yul\":2268:2333   */\n      tag_132\n        /* \"#utility.yul\":2326:2332   */\n      dup2\n        /* \"#utility.yul\":2321:2324   */\n      dup6\n        /* \"#utility.yul\":2314:2318   */\n      0x20\n        /* \"#utility.yul\":2307:2312   */\n      dup7\n        /* \"#utility.yul\":2303:2319   */\n      add\n        /* \"#utility.yul\":2268:2333   */\n      tag_68\n      jump\t// in\n    tag_132:\n        /* \"#utility.yul\":2358:2387   */\n      tag_133\n        /* \"#utility.yul\":2380:2386   */\n      dup2\n        /* \"#utility.yul\":2358:2387   */\n      tag_69\n      jump\t// in\n    tag_133:\n        /* \"#utility.yul\":2353:2356   */\n      dup5\n        /* \"#utility.yul\":2349:2388   */\n      add\n        /* \"#utility.yul\":2342:2388   */\n      swap2\n      pop\n        /* \"#utility.yul\":2109:2394   */\n      pop\n        /* \"#utility.yul\":2017:2394   */\n      swap3\n      swap2\n      pop\n      pop\n      jump\t// out\n        /* \"#utility.yul\":2400:2823   */\n    tag_20:\n        /* \"#utility.yul\":2541:2545   */\n      0x00\n        /* \"#utility.yul\":2579:2581   */\n      0x40\n        /* \"#utility.yul\":2568:2577   */\n      dup3\n        /* \"#utility.yul\":2564:2582   */\n      add\n        /* \"#utility.yul\":2556:2582   */\n      swap1\n      pop\n        /* \"#utility.yul\":2628:2637   */\n      dup2\n        /* \"#utility.yul\":2622:2626   */\n      dup2\n        /* \"#utility.yul\":2618:2638   */\n      sub\n        /* \"#utility.yul\":2614:2615   */\n      0x00\n        /* \"#utility.yul\":2603:2612   */\n      dup4\n        /* \"#utility.yul\":2599:2616   */\n      add\n        /* \"#utility.yul\":2592:2639   */\n      mstore\n        /* \"#utility.yul\":2656:2734   */\n      tag_135\n        /* \"#utility.yul\":2729:2733   */\n      dup2\n        /* \"#utility.yul\":2720:2726   */\n      dup6\n        /* \"#utility.yul\":2656:2734   */\n      tag_70\n      jump\t// in\n    tag_135:\n        /* \"#utility.yul\":2648:2734   */\n      swap1\n      pop\n        /* \"#utility.yul\":2744:2816   */\n      tag_136\n        /* \"#utility.yul\":2812:2814   */\n      0x20\n        /* \"#utility.yul\":2801:2810   */\n      dup4\n        /* \"#utility.yul\":2797:2815   */\n      add\n        /* \"#utility.yul\":2788:2794   */\n      dup5\n        /* \"#utility.yul\":2744:2816   */\n      tag_60\n      jump\t// in\n    tag_136:\n        /* \"#utility.yul\":2400:2823   */\n      swap4\n      swap3\n      pop\n      pop\n      pop\n      jump\t// out\n        /* \"#utility.yul\":2829:2946   */\n    tag_71:\n        /* \"#utility.yul\":2938:2939   */\n      0x00\n        /* \"#utility.yul\":2935:2936   */\n      dup1\n        /* \"#utility.yul\":2928:2940   */\n      revert\n        /* \"#utility.yul\":2952:3069   */\n    tag_72:\n        /* \"#utility.yul\":3061:3062   */\n      0x00\n        /* \"#utility.yul\":3058:3059   */\n      dup1\n        /* \"#utility.yul\":3051:3063   */\n      revert\n        /* \"#utility.yul\":3075:3255   */\n    tag_73:\n        /* \"#utility.yul\":3123:3200   */\n      0x4e487b7100000000000000000000000000000000000000000000000000000000\n        /* \"#utility.yul\":3120:3121   */\n      0x00\n        /* \"#utility.yul\":3113:3201   */\n      mstore\n        /* \"#utility.yul\":3220:3224   */\n      0x41\n        /* \"#utility.yul\":3217:3218   */\n      0x04\n        /* \"#utility.yul\":3210:3225   */\n      mstore\n        /* \"#utility.yul\":3244:3248   */\n      0x24\n        /* \"#utility.yul\":3241:3242   */\n      0x00\n        /* \"#utility.yul\":3234:3249   */\n      revert\n        /* \"#utility.yul\":3261:3542   */\n    tag_74:\n        /* \"#utility.yul\":3344:3371   */\n      tag_141\n        /* \"#utility.yul\":3366:3370   */\n      dup3\n        /* \"#utility.yul\":3344:3371   */\n      tag_69\n      jump\t// in\n    tag_141:\n        /* \"#utility.yul\":3336:3342   */\n      dup2\n        /* \"#utility.yul\":3332:3372   */\n      add\n        /* \"#utility.yul\":3474:3480   */\n      dup2\n        /* \"#utility.yul\":3462:3472   */\n      dup2\n        /* \"#utility.yul\":3459:3481   */\n      lt\n        /* \"#utility.yul\":3438:3456   */\n      0xffffffffffffffff\n        /* \"#utility.yul\":3426:3436   */\n      dup3\n        /* \"#utility.yul\":3423:3457   */\n      gt\n        /* \"#utility.yul\":3420:3482   */\n      or\n        /* \"#utility.yul\":3417:3505   */\n      iszero\n      tag_142\n      jumpi\n        /* \"#utility.yul\":3485:3503   */\n      tag_143\n      tag_73\n      jump\t// in\n    tag_143:\n        /* \"#utility.yul\":3417:3505   */\n    tag_142:\n        /* \"#utility.yul\":3525:3535   */\n      dup1\n        /* \"#utility.yul\":3521:3523   */\n      0x40\n        /* \"#utility.yul\":3514:3536   */\n      mstore\n        /* \"#utility.yul\":3304:3542   */\n      pop\n        /* \"#utility.yul\":3261:3542   */\n      pop\n      pop\n      jump\t// out\n        /* \"#utility.yul\":3548:3677   */\n    tag_75:\n        /* \"#utility.yul\":3582:3588   */\n      0x00\n        /* \"#utility.yul\":3609:3629   */\n      tag_145\n      tag_61\n      jump\t// in\n    tag_145:\n        /* \"#utility.yul\":3599:3629   */\n      swap1\n      pop\n        /* \"#utility.yul\":3638:3671   */\n      tag_146\n        /* \"#utility.yul\":3666:3670   */\n      dup3\n        /* \"#utility.yul\":3658:3664   */\n      dup3\n        /* \"#utility.yul\":3638:3671   */\n      tag_74\n      jump\t// in\n    tag_146:\n        /* \"#utility.yul\":3548:3677   */\n      swap2\n      swap1\n      pop\n      jump\t// out\n        /* \"#utility.yul\":3683:3991   */\n    tag_76:\n        /* \"#utility.yul\":3745:3749   */\n      0x00\n        /* \"#utility.yul\":3835:3853   */\n      0xffffffffffffffff\n        /* \"#utility.yul\":3827:3833   */\n      dup3\n        /* \"#utility.yul\":3824:3854   */\n      gt\n        /* \"#utility.yul\":3821:3877   */\n      iszero\n      tag_148\n      jumpi\n        /* \"#utility.yul\":3857:3875   */\n      tag_149\n      tag_73\n      jump\t// in\n    tag_149:\n        /* \"#utility.yul\":3821:3877   */\n    tag_148:\n        /* \"#utility.yul\":3895:3924   */\n      tag_150\n        /* \"#utility.yul\":3917:3923   */\n      dup3\n        /* \"#utility.yul\":3895:3924   */\n      tag_69\n      jump\t// in\n    tag_150:\n        /* \"#utility.yul\":3887:3924   */\n      swap1\n      pop\n        /* \"#utility.yul\":3979:3983   */\n      0x20\n        /* \"#utility.yul\":3973:3977   */\n      dup2\n        /* \"#utility.yul\":3969:3984   */\n      add\n        /* \"#utility.yul\":3961:3984   */\n      swap1\n      pop\n        /* \"#utility.yul\":3683:3991   */\n      swap2\n      swap1\n      pop\n      jump\t// out\n        /* \"#utility.yul\":3997:4143   */\n    tag_77:\n        /* \"#utility.yul\":4094:4100   */\n      dup3\n        /* \"#utility.yul\":4089:4092   */\n      dup2\n        /* \"#utility.yul\":4084:4087   */\n      dup4\n        /* \"#utility.yul\":4071:4101   */\n      calldatacopy\n        /* \"#utility.yul\":4135:4136   */\n      0x00\n        /* \"#utility.yul\":4126:4132   */\n      dup4\n        /* \"#utility.yul\":4121:4124   */\n      dup4\n        /* \"#utility.yul\":4117:4133   */\n      add\n        /* \"#utility.yul\":4110:4137   */\n      mstore\n        /* \"#utility.yul\":3997:4143   */\n      pop\n      pop\n      pop\n      jump\t// out\n        /* \"#utility.yul\":4149:4574   */\n    tag_78:\n        /* \"#utility.yul\":4227:4232   */\n      0x00\n        /* \"#utility.yul\":4252:4318   */\n      tag_153\n        /* \"#utility.yul\":4268:4317   */\n      tag_154\n        /* \"#utility.yul\":4310:4316   */\n      dup5\n        /* \"#utility.yul\":4268:4317   */\n      tag_76\n      jump\t// in\n    tag_154:\n        /* \"#utility.yul\":4252:4318   */\n      tag_75\n      jump\t// in\n    tag_153:\n        /* \"#utility.yul\":4243:4318   */\n      swap1\n      pop\n        /* \"#utility.yul\":4341:4347   */\n      dup3\n        /* \"#utility.yul\":4334:4339   */\n      dup2\n        /* \"#utility.yul\":4327:4348   */\n      mstore\n        /* \"#utility.yul\":4379:4383   */\n      0x20\n        /* \"#utility.yul\":4372:4377   */\n      dup2\n        /* \"#utility.yul\":4368:4384   */\n      add\n        /* \"#utility.yul\":4417:4420   */\n      dup5\n        /* \"#utility.yul\":4408:4414   */\n      dup5\n        /* \"#utility.yul\":4403:4406   */\n      dup5\n        /* \"#utility.yul\":4399:4415   */\n      add\n        /* \"#utility.yul\":4396:4421   */\n      gt\n        /* \"#utility.yul\":4393:4505   */\n      iszero\n      tag_155\n      jumpi\n        /* \"#utility.yul\":4424:4503   */\n      tag_156\n      tag_72\n      jump\t// in\n    tag_156:\n        /* \"#utility.yul\":4393:4505   */\n    tag_155:\n        /* \"#utility.yul\":4514:4568   */\n      tag_157\n        /* \"#utility.yul\":4561:4567   */\n      dup5\n        /* \"#utility.yul\":4556:4559   */\n      dup3\n        /* \"#utility.yul\":4551:4554   */\n      dup6\n        /* \"#utility.yul\":4514:4568   */\n      tag_77\n      jump\t// in\n    tag_157:\n        /* \"#utility.yul\":4233:4574   */\n      pop\n        /* \"#utility.yul\":4149:4574   */\n      swap4\n      swap3\n      pop\n      pop\n      pop\n      jump\t// out\n        /* \"#utility.yul\":4594:4934   */\n    tag_79:\n        /* \"#utility.yul\":4650:4655   */\n      0x00\n        /* \"#utility.yul\":4699:4702   */\n      dup3\n        /* \"#utility.yul\":4692:4696   */\n      0x1f\n        /* \"#utility.yul\":4684:4690   */\n      dup4\n        /* \"#utility.yul\":4680:4697   */\n      add\n        /* \"#utility.yul\":4676:4703   */\n      slt\n        /* \"#utility.yul\":4666:4788   */\n      tag_159\n      jumpi\n        /* \"#utility.yul\":4707:4786   */\n      tag_160\n      tag_71\n      jump\t// in\n    tag_160:\n        /* \"#utility.yul\":4666:4788   */\n    tag_159:\n        /* \"#utility.yul\":4824:4830   */\n      dup2\n        /* \"#utility.yul\":4811:4831   */\n      calldataload\n        /* \"#utility.yul\":4849:4928   */\n      tag_161\n        /* \"#utility.yul\":4924:4927   */\n      dup5\n        /* \"#utility.yul\":4916:4922   */\n      dup3\n        /* \"#utility.yul\":4909:4913   */\n      0x20\n        /* \"#utility.yul\":4901:4907   */\n      dup7\n        /* \"#utility.yul\":4897:4914   */\n      add\n        /* \"#utility.yul\":4849:4928   */\n      tag_78\n      jump\t// in\n    tag_161:\n        /* \"#utility.yul\":4840:4928   */\n      swap2\n      pop\n        /* \"#utility.yul\":4656:4934   */\n      pop\n        /* \"#utility.yul\":4594:4934   */\n      swap3\n      swap2\n      pop\n      pop\n      jump\t// out\n        /* \"#utility.yul\":4940:5449   */\n    tag_26:\n        /* \"#utility.yul\":5009:5015   */\n      0x00\n        /* \"#utility.yul\":5058:5060   */\n      0x20\n        /* \"#utility.yul\":5046:5055   */\n      dup3\n        /* \"#utility.yul\":5037:5044   */\n      dup5\n        /* \"#utility.yul\":5033:5056   */\n      sub\n        /* \"#utility.yul\":5029:5061   */\n      slt\n        /* \"#utility.yul\":5026:5145   */\n      iszero\n      tag_163\n      jumpi\n        /* \"#utility.yul\":5064:5143   */\n      tag_164\n      tag_62\n      jump\t// in\n    tag_164:\n        /* \"#utility.yul\":5026:5145   */\n    tag_163:\n        /* \"#utility.yul\":5212:5213   */\n      0x00\n        /* \"#utility.yul\":5201:5210   */\n      dup3\n        /* \"#utility.yul\":5197:5214   */\n      add\n        /* \"#utility.yul\":5184:5215   */\n      calldataload\n        /* \"#utility.yul\":5242:5260   */\n      0xffffffffffffffff\n        /* \"#utility.yul\":5234:5240   */\n      dup2\n        /* \"#utility.yul\":5231:5261   */\n      gt\n        /* \"#utility.yul\":5228:5345   */\n      iszero\n      tag_165\n      jumpi\n        /* \"#utility.yul\":5264:5343   */\n      tag_166\n      tag_63\n      jump\t// in\n    tag_166:\n        /* \"#utility.yul\":5228:5345   */\n    tag_165:\n        /* \"#utility.yul\":5369:5432   */\n      tag_167\n        /* \"#utility.yul\":5424:5431   */\n      dup5\n        /* \"#utility.yul\":5415:5421   */\n      dup3\n        /* \"#utility.yul\":5404:5413   */\n      dup6\n        /* \"#utility.yul\":5400:5422   */\n      add\n        /* \"#utility.yul\":5369:5432   */\n      tag_79\n      jump\t// in\n    tag_167:\n        /* \"#utility.yul\":5359:5432   */\n      swap2\n      pop\n        /* \"#utility.yul\":5155:5442   */\n      pop\n        /* \"#utility.yul\":4940:5449   */\n      swap3\n      swap2\n      pop\n      pop\n      jump\t// out\n        /* \"#utility.yul\":5455:5572   */\n    tag_80:\n        /* \"#utility.yul\":5564:5565   */\n      0x00\n        /* \"#utility.yul\":5561:5562   */\n      dup1\n        /* \"#utility.yul\":5554:5566   */\n      revert\n        /* \"#utility.yul\":5578:5695   */\n    tag_81:\n        /* \"#utility.yul\":5687:5688   */\n      0x00\n        /* \"#utility.yul\":5684:5685   */\n      dup1\n        /* \"#utility.yul\":5677:5689   */\n      revert\n        /* \"#utility.yul\":5715:6268   */\n    tag_82:\n        /* \"#utility.yul\":5773:5781   */\n      0x00\n        /* \"#utility.yul\":5783:5789   */\n      dup1\n        /* \"#utility.yul\":5833:5836   */\n      dup4\n        /* \"#utility.yul\":5826:5830   */\n      0x1f\n        /* \"#utility.yul\":5818:5824   */\n      dup5\n        /* \"#utility.yul\":5814:5831   */\n      add\n        /* \"#utility.yul\":5810:5837   */\n      slt\n        /* \"#utility.yul\":5800:5922   */\n      tag_171\n      jumpi\n        /* \"#utility.yul\":5841:5920   */\n      tag_172\n      tag_71\n      jump\t// in\n    tag_172:\n        /* \"#utility.yul\":5800:5922   */\n    tag_171:\n        /* \"#utility.yul\":5954:5960   */\n      dup3\n        /* \"#utility.yul\":5941:5961   */\n      calldataload\n        /* \"#utility.yul\":5931:5961   */\n      swap1\n      pop\n        /* \"#utility.yul\":5984:6002   */\n      0xffffffffffffffff\n        /* \"#utility.yul\":5976:5982   */\n      dup2\n        /* \"#utility.yul\":5973:6003   */\n      gt\n        /* \"#utility.yul\":5970:6087   */\n      iszero\n      tag_173\n      jumpi\n        /* \"#utility.yul\":6006:6085   */\n      tag_174\n      tag_80\n      jump\t// in\n    tag_174:\n        /* \"#utility.yul\":5970:6087   */\n    tag_173:\n        /* \"#utility.yul\":6120:6124   */\n      0x20\n        /* \"#utility.yul\":6112:6118   */\n      dup4\n        /* \"#utility.yul\":6108:6125   */\n      add\n        /* \"#utility.yul\":6096:6125   */\n      swap2\n      pop\n        /* \"#utility.yul\":6174:6177   */\n      dup4\n        /* \"#utility.yul\":6166:6170   */\n      0x01\n        /* \"#utility.yul\":6158:6164   */\n      dup3\n        /* \"#utility.yul\":6154:6171   */\n      mul\n        /* \"#utility.yul\":6144:6152   */\n      dup4\n        /* \"#utility.yul\":6140:6172   */\n      add\n        /* \"#utility.yul\":6137:6178   */\n      gt\n        /* \"#utility.yul\":6134:6262   */\n      iszero\n      tag_175\n      jumpi\n        /* \"#utility.yul\":6181:6260   */\n      tag_176\n      tag_81\n      jump\t// in\n    tag_176:\n        /* \"#utility.yul\":6134:6262   */\n    tag_175:\n        /* \"#utility.yul\":5715:6268   */\n      swap3\n      pop\n      swap3\n      swap1\n      pop\n      jump\t// out\n        /* \"#utility.yul\":6274:6948   */\n    tag_31:\n        /* \"#utility.yul\":6354:6360   */\n      0x00\n        /* \"#utility.yul\":6362:6368   */\n      dup1\n        /* \"#utility.yul\":6370:6376   */\n      0x00\n        /* \"#utility.yul\":6419:6421   */\n      0x40\n        /* \"#utility.yul\":6407:6416   */\n      dup5\n        /* \"#utility.yul\":6398:6405   */\n      dup7\n        /* \"#utility.yul\":6394:6417   */\n      sub\n        /* \"#utility.yul\":6390:6422   */\n      slt\n        /* \"#utility.yul\":6387:6506   */\n      iszero\n      tag_178\n      jumpi\n        /* \"#utility.yul\":6425:6504   */\n      tag_179\n      tag_62\n      jump\t// in\n    tag_179:\n        /* \"#utility.yul\":6387:6506   */\n    tag_178:\n        /* \"#utility.yul\":6573:6574   */\n      0x00\n        /* \"#utility.yul\":6562:6571   */\n      dup5\n        /* \"#utility.yul\":6558:6575   */\n      add\n        /* \"#utility.yul\":6545:6576   */\n      calldataload\n        /* \"#utility.yul\":6603:6621   */\n      0xffffffffffffffff\n        /* \"#utility.yul\":6595:6601   */\n      dup2\n        /* \"#utility.yul\":6592:6622   */\n      gt\n        /* \"#utility.yul\":6589:6706   */\n      iszero\n      tag_180\n      jumpi\n        /* \"#utility.yul\":6625:6704   */\n      tag_181\n      tag_63\n      jump\t// in\n    tag_181:\n        /* \"#utility.yul\":6589:6706   */\n    tag_180:\n        /* \"#utility.yul\":6738:6803   */\n      tag_182\n        /* \"#utility.yul\":6795:6802   */\n      dup7\n        /* \"#utility.yul\":6786:6792   */\n      dup3\n        /* \"#utility.yul\":6775:6784   */\n      dup8\n        /* \"#utility.yul\":6771:6793   */\n      add\n        /* \"#utility.yul\":6738:6803   */\n      tag_82\n      jump\t// in\n    tag_182:\n        /* \"#utility.yul\":6720:6803   */\n      swap4\n      pop\n      swap4\n      pop\n        /* \"#utility.yul\":6516:6813   */\n      pop\n        /* \"#utility.yul\":6852:6854   */\n      0x20\n        /* \"#utility.yul\":6878:6931   */\n      tag_183\n        /* \"#utility.yul\":6923:6930   */\n      dup7\n        /* \"#utility.yul\":6914:6920   */\n      dup3\n        /* \"#utility.yul\":6903:6912   */\n      dup8\n        /* \"#utility.yul\":6899:6921   */\n      add\n        /* \"#utility.yul\":6878:6931   */\n      tag_65\n      jump\t// in\n    tag_183:\n        /* \"#utility.yul\":6868:6931   */\n      swap2\n      pop\n        /* \"#utility.yul\":6823:6941   */\n      pop\n        /* \"#utility.yul\":6274:6948   */\n      swap3\n      pop\n      swap3\n      pop\n      swap3\n      jump\t// out\n        /* \"#utility.yul\":6954:7044   */\n    tag_83:\n        /* \"#utility.yul\":6988:6995   */\n      0x00\n        /* \"#utility.yul\":7031:7036   */\n      dup2\n        /* \"#utility.yul\":7024:7037   */\n      iszero\n        /* \"#utility.yul\":7017:7038   */\n      iszero\n        /* \"#utility.yul\":7006:7038   */\n      swap1\n      pop\n        /* \"#utility.yul\":6954:7044   */\n      swap2\n      swap1\n      pop\n      jump\t// out\n        /* \"#utility.yul\":7050:7159   */\n    tag_84:\n        /* \"#utility.yul\":7131:7152   */\n      tag_186\n        /* \"#utility.yul\":7146:7151   */\n      dup2\n        /* \"#utility.yul\":7131:7152   */\n      tag_83\n      jump\t// in\n    tag_186:\n        /* \"#utility.yul\":7126:7129   */\n      dup3\n        /* \"#utility.yul\":7119:7153   */\n      mstore\n        /* \"#utility.yul\":7050:7159   */\n      pop\n      pop\n      jump\t// out\n        /* \"#utility.yul\":7165:7375   */\n    tag_36:\n        /* \"#utility.yul\":7252:7256   */\n      0x00\n        /* \"#utility.yul\":7290:7292   */\n      0x20\n        /* \"#utility.yul\":7279:7288   */\n      dup3\n        /* \"#utility.yul\":7275:7293   */\n      add\n        /* \"#utility.yul\":7267:7293   */\n      swap1\n      pop\n        /* \"#utility.yul\":7303:7368   */\n      tag_188\n        /* \"#utility.yul\":7365:7366   */\n      0x00\n        /* \"#utility.yul\":7354:7363   */\n      dup4\n        /* \"#utility.yul\":7350:7367   */\n      add\n        /* \"#utility.yul\":7341:7347   */\n      dup5\n        /* \"#utility.yul\":7303:7368   */\n      tag_84\n      jump\t// in\n    tag_188:\n        /* \"#utility.yul\":7165:7375   */\n      swap3\n      swap2\n      pop\n      pop\n      jump\t// out\n        /* \"#utility.yul\":7381:7561   */\n    tag_85:\n        /* \"#utility.yul\":7429:7506   */\n      0x4e487b7100000000000000000000000000000000000000000000000000000000\n        /* \"#utility.yul\":7426:7427   */\n      0x00\n        /* \"#utility.yul\":7419:7507   */\n      mstore\n        /* \"#utility.yul\":7526:7530   */\n      0x22\n        /* \"#utility.yul\":7523:7524   */\n      0x04\n        /* \"#utility.yul\":7516:7531   */\n      mstore\n        /* \"#utility.yul\":7550:7554   */\n      0x24\n        /* \"#utility.yul\":7547:7548   */\n      0x00\n        /* \"#utility.yul\":7540:7555   */\n      revert\n        /* \"#utility.yul\":7567:7887   */\n    tag_44:\n        /* \"#utility.yul\":7611:7617   */\n      0x00\n        /* \"#utility.yul\":7648:7649   */\n      0x02\n        /* \"#utility.yul\":7642:7646   */\n      dup3\n        /* \"#utility.yul\":7638:7650   */\n      div\n        /* \"#utility.yul\":7628:7650   */\n      swap1\n      pop\n        /* \"#utility.yul\":7695:7696   */\n      0x01\n        /* \"#utility.yul\":7689:7693   */\n      dup3\n        /* \"#utility.yul\":7685:7697   */\n      and\n        /* \"#utility.yul\":7716:7734   */\n      dup1\n        /* \"#utility.yul\":7706:7787   */\n      tag_191\n      jumpi\n        /* \"#utility.yul\":7772:7776   */\n      0x7f\n        /* \"#utility.yul\":7764:7770   */\n      dup3\n        /* \"#utility.yul\":7760:7777   */\n      and\n        /* \"#utility.yul\":7750:7777   */\n      swap2\n      pop\n        /* \"#utility.yul\":7706:7787   */\n    tag_191:\n        /* \"#utility.yul\":7834:7836   */\n      0x20\n        /* \"#utility.yul\":7826:7832   */\n      dup3\n        /* \"#utility.yul\":7823:7837   */\n      lt\n        /* \"#utility.yul\":7803:7821   */\n      dup2\n        /* \"#utility.yul\":7800:7838   */\n      sub\n        /* \"#utility.yul\":7797:7881   */\n      tag_192\n      jumpi\n        /* \"#utility.yul\":7853:7871   */\n      tag_193\n      tag_85\n      jump\t// in\n    tag_193:\n        /* \"#utility.yul\":7797:7881   */\n    tag_192:\n        /* \"#utility.yul\":7618:7887   */\n      pop\n        /* \"#utility.yul\":7567:7887   */\n      swap2\n      swap1\n      pop\n      jump\t// out\n        /* \"#utility.yul\":7893:8034   */\n    tag_86:\n        /* \"#utility.yul\":7942:7946   */\n      0x00\n        /* \"#utility.yul\":7965:7968   */\n      dup2\n        /* \"#utility.yul\":7957:7968   */\n      swap1\n      pop\n        /* \"#utility.yul\":7988:7991   */\n      dup2\n        /* \"#utility.yul\":7985:7986   */\n      0x00\n        /* \"#utility.yul\":7978:7992   */\n      mstore\n        /* \"#utility.yul\":8022:8026   */\n      0x20\n        /* \"#utility.yul\":8019:8020   */\n      0x00\n        /* \"#utility.yul\":8009:8027   */\n      keccak256\n        /* \"#utility.yul\":8001:8027   */\n      swap1\n      pop\n        /* \"#utility.yul\":7893:8034   */\n      swap2\n      swap1\n      pop\n      jump\t// out\n        /* \"#utility.yul\":8040:8133   */\n    tag_87:\n        /* \"#utility.yul\":8077:8083   */\n      0x00\n        /* \"#utility.yul\":8124:8126   */\n      0x20\n        /* \"#utility.yul\":8119:8121   */\n      0x1f\n        /* \"#utility.yul\":8112:8117   */\n      dup4\n        /* \"#utility.yul\":8108:8122   */\n      add\n        /* \"#utility.yul\":8104:8127   */\n      div\n        /* \"#utility.yul\":8094:8127   */\n      swap1\n      pop\n        /* \"#utility.yul\":8040:8133   */\n      swap2\n      swap1\n      pop\n      jump\t// out\n        /* \"#utility.yul\":8139:8246   */\n    tag_88:\n        /* \"#utility.yul\":8183:8191   */\n      0x00\n        /* \"#utility.yul\":8233:8238   */\n      dup3\n        /* \"#utility.yul\":8227:8231   */\n      dup3\n        /* \"#utility.yul\":8223:8239   */\n      shl\n        /* \"#utility.yul\":8202:8239   */\n      swap1\n      pop\n        /* \"#utility.yul\":8139:8246   */\n      swap3\n      swap2\n      pop\n      pop\n      jump\t// out\n        /* \"#utility.yul\":8252:8645   */\n    tag_89:\n        /* \"#utility.yul\":8321:8327   */\n      0x00\n        /* \"#utility.yul\":8371:8372   */\n      0x08\n        /* \"#utility.yul\":8359:8369   */\n      dup4\n        /* \"#utility.yul\":8355:8373   */\n      mul\n        /* \"#utility.yul\":8394:8491   */\n      tag_198\n        /* \"#utility.yul\":8424:8490   */\n      0xffffffffffffffffffffffffffffffffffffffffffffffffffffffffffffffff\n        /* \"#utility.yul\":8413:8422   */\n      dup3\n        /* \"#utility.yul\":8394:8491   */\n      tag_88\n      jump\t// in\n    tag_198:\n        /* \"#utility.yul\":8512:8551   */\n      tag_199\n        /* \"#utility.yul\":8542:8550   */\n      dup7\n        /* \"#utility.yul\":8531:8540   */\n      dup4\n        /* \"#utility.yul\":8512:8551   */\n      tag_88\n      jump\t// in\n    tag_199:\n        /* \"#utility.yul\":8500:8551   */\n      swap6\n      pop\n        /* \"#utility.yul\":8584:8588   */\n      dup1\n        /* \"#utility.yul\":8580:8589   */\n      not\n        /* \"#utility.yul\":8573:8578   */\n      dup5\n        /* \"#utility.yul\":8569:8590   */\n      and\n        /* \"#utility.yul\":8560:8590   */\n      swap4\n      pop\n        /* \"#utility.yul\":8633:8637   */\n      dup1\n        /* \"#utility.yul\":8623:8631   */\n      dup7\n        /* \"#utility.yul\":8619:8638   */\n      and\n        /* \"#utility.yul\":8612:8617   */\n      dup5\n        /* \"#utility.yul\":8609:8639   */\n      or\n        /* \"#utility.yul\":8599:8639   */\n      swap3\n      pop\n        /* \"#utility.yul\":8328:8645   */\n      pop\n      pop\n        /* \"#utility.yul\":8252:8645   */\n      swap4\n      swap3\n      pop\n      pop\n      pop\n      jump\t// out\n        /* \"#utility.yul\":8651:8711   */\n    tag_90:\n        /* \"#utility.yul\":8679:8682   */\n      0x00\n        /* \"#utility.yul\":8700:8705   */\n      dup2\n        /* \"#utility.yul\":8693:8705   */\n      swap1\n      pop\n        /* \"#utility.yul\":8651:8711   */\n      swap2\n      swap1\n      pop\n      jump\t// out\n        /* \"#utility.yul\":8717:8859   */\n    tag_91:\n        /* \"#utility.yul\":8767:8776   */\n      0x00\n        /* \"#utility.yul\":8800:8853   */\n      tag_202\n        /* \"#utility.yul\":8818:8852   */\n      tag_203\n        /* \"#utility.yul\":8827:8851   */\n      tag_204\n        /* \"#utility.yul\":8845:8850   */\n      dup5\n        /* \"#utility.yul\":8827:8851   */\n      tag_59\n      jump\t// in\n    tag_204:\n        /* \"#utility.yul\":8818:8852   */\n      tag_90\n      jump\t// in\n    tag_203:\n        /* \"#utility.yul\":8800:8853   */\n      tag_59\n      jump\t// in\n    tag_202:\n        /* \"#utility.yul\":8787:8853   */\n      swap1\n      pop\n        /* \"#utility.yul\":8717:8859   */\n      swap2\n      swap1\n      pop\n      jump\t// out\n        /* \"#utility.yul\":8865:8940   */\n    tag_92:\n        /* \"#utility.yul\":8908:8911   */\n      0x00\n        /* \"#utility.yul\":8929:8934   */\n      dup2\n        /* \"#utility.yul\":8922:8934   */\n      swap1\n      pop\n        /* \"#utility.yul\":8865:8940   */\n      swap2\n      swap1\n      pop\n      jump\t// out\n        /* \"#utility.yul\":8946:9215   */\n    tag_93:\n        /* \"#utility.yul\":9056:9095   */\n      tag_207\n        /* \"#utility.yul\":9087:9094   */\n      dup4\n        /* \"#utility.yul\":9056:9095   */\n      tag_91\n      jump\t// in\n    tag_207:\n        /* \"#utility.yul\":9117:9208   */\n      tag_208\n        /* \"#utility.yul\":9166:9207   */\n      tag_209\n        /* \"#utility.yul\":9190:9206   */\n      dup3\n        /* \"#utility.yul\":9166:9207   */\n      tag_92\n      jump\t// in\n    tag_209:\n        /* \"#utility.yul\":9158:9164   */\n      dup5\n        /* \"#utility.yul\":9151:9155   */\n      dup5\n        /* \"#utility.yul\":9145:9156   */\n      sload\n        /* \"#utility.yul\":9117:9208   */\n      tag_89\n      jump\t// in\n    tag_208:\n        /* \"#utility.yul\":9111:9115   */\n      dup3\n        /* \"#utility.yul\":9104:9209   */\n      sstore\n        /* \"#utility.yul\":9022:9215   */\n      pop\n        /* \"#utility.yul\":8946:9215   */\n      pop\n      pop\n      pop\n      jump\t// out\n        /* \"#utility.yul\":9221:9294   */\n    tag_94:\n        /* \"#utility.yul\":9266:9269   */\n      0x00\n        /* \"#utility.yul\":9221:9294   */\n      swap1\n      jump\t// out\n        /* \"#utility.yul\":9300:9489   */\n    tag_95:\n        /* \"#utility.yul\":9377:9409   */\n      tag_212\n      tag_94\n      jump\t// in\n    tag_212:\n        /* \"#utility.yul\":9418:9483   */\n      tag_213\n        /* \"#utility.yul\":9476:9482   */\n      dup2\n        /* \"#utility.yul\":9468:9474   */\n      dup5\n        /* \"#utility.yul\":9462:9466   */\n      dup5\n        /* \"#utility.yul\":9418:9483   */\n      tag_93\n      jump\t// in\n    tag_213:\n        /* \"#utility.yul\":9353:9489   */\n      pop\n        /* \"#utility.yul\":9300:9489   */\n      pop\n      pop\n      jump\t// out\n        /* \"#utility.yul\":9495:9681   */\n    tag_96:\n        /* \"#utility.yul\":9555:9675   */\n    tag_215:\n        /* \"#utility.yul\":9572:9575   */\n      dup2\n        /* \"#utility.yul\":9565:9570   */\n      dup2\n        /* \"#utility.yul\":9562:9576   */\n      lt\n        /* \"#utility.yul\":9555:9675   */\n      iszero\n      tag_217\n      jumpi\n        /* \"#utility.yul\":9626:9665   */\n      tag_218\n        /* \"#utility.yul\":9663:9664   */\n      0x00\n        /* \"#utility.yul\":9656:9661   */\n      dup3\n        /* \"#utility.yul\":9626:9665   */\n      tag_95\n      jump\t// in\n    tag_218:\n        /* \"#utility.yul\":9599:9600   */\n      0x01\n        /* \"#utility.yul\":9592:9597   */\n      dup2\n        /* \"#utility.yul\":9588:9601   */\n      add\n        /* \"#utility.yul\":9579:9601   */\n      swap1\n      pop\n        /* \"#utility.yul\":9555:9675   */\n      jump(tag_215)\n    tag_217:\n        /* \"#utility.yul\":9495:9681   */\n      pop\n      pop\n      jump\t// out\n        /* \"#utility.yul\":9687:10230   */\n    tag_97:\n        /* \"#utility.yul\":9788:9790   */\n      0x1f\n        /* \"#utility.yul\":9783:9786   */\n      dup3\n        /* \"#utility.yul\":9780:9791   */\n      gt\n        /* \"#utility.yul\":9777:10223   */\n      iszero\n      tag_220\n      jumpi\n        /* \"#utility.yul\":9822:9860   */\n      tag_221\n        /* \"#utility.yul\":9854:9859   */\n      dup2\n        /* \"#utility.yul\":9822:9860   */\n      tag_86\n      jump\t// in\n    tag_221:\n        /* \"#utility.yul\":9906:9935   */\n      tag_222\n        /* \"#utility.yul\":9924:9934   */\n      dup5\n        /* \"#utility.yul\":9906:9935   */\n      tag_87\n      jump\t// in\n    tag_222:\n        /* \"#utility.yul\":9896:9904   */\n      dup2\n        /* \"#utility.yul\":9892:9936   */\n      add\n        /* \"#utility.yul\":10089:10091   */\n      0x20\n        /* \"#utility.yul\":10077:10087   */\n      dup6\n        /* \"#utility.yul\":10074:10092   */\n      lt\n        /* \"#utility.yul\":10071:10120   */\n      iszero\n      tag_223\n      jumpi\n        /* \"#utility.yul\":10110:10118   */\n      dup2\n        /* \"#utility.yul\":10095:10118   */\n      swap1\n      pop\n        /* \"#utility.yul\":10071:10120   */\n    tag_223:\n        /* \"#utility.yul\":10133:10213   */\n      tag_224\n        /* \"#utility.yul\":10189:10211   */\n      tag_225\n        /* \"#utility.yul\":10207:10210   */\n      dup6\n        /* \"#utility.yul\":10189:10211   */\n      tag_87\n      jump\t// in\n    tag_225:\n        /* \"#utility.yul\":10179:10187   */\n      dup4\n        /* \"#utility.yul\":10175:10212   */\n      add\n        /* \"#utility.yul\":10162:10173   */\n      dup3\n        /* \"#utility.yul\":10133:10213   */\n      tag_96\n      jump\t// in\n    tag_224:\n        /* \"#utility.yul\":9792:10223   */\n      pop\n      pop\n        /* \"#utility.yul\":9777:10223   */\n    tag_220:\n        /* \"#utility.yul\":9687:10230   */\n      pop\n      pop\n      pop\n      jump\t// out\n        /* \"#utility.yul\":10236:10353   */\n    tag_98:\n        /* \"#utility.yul\":10290:10298   */\n      0x00\n        /* \"#utility.yul\":10340:10345   */\n      dup3\n        /* \"#utility.yul\":10334:10338   */\n      dup3\n        /* \"#utility.yul\":10330:10346   */\n      shr\n        /* \"#utility.yul\":10309:10346   */\n      swap1\n      pop\n        /* \"#utility.yul\":10236:10353   */\n      swap3\n      swap2\n      pop\n      pop\n      jump\t// out\n        /* \"#utility.yul\":10359:10528   */\n    tag_99:\n        /* \"#utility.yul\":10403:10409   */\n      0x00\n        /* \"#utility.yul\":10436:10487   */\n      tag_228\n        /* \"#utility.yul\":10484:10485   */\n      0x00\n        /* \"#utility.yul\":10480:10486   */\n      not\n        /* \"#utility.yul\":10472:10477   */\n      dup5\n        /* \"#utility.yul\":10469:10470   */\n      0x08\n        /* \"#utility.yul\":10465:10478   */\n      mul\n        /* \"#utility.yul\":10436:10487   */\n      tag_98\n      jump\t// in\n    tag_228:\n        /* \"#utility.yul\":10432:10488   */\n      not\n        /* \"#utility.yul\":10517:10521   */\n      dup1\n        /* \"#utility.yul\":10511:10515   */\n      dup4\n        /* \"#utility.yul\":10507:10522   */\n      and\n        /* \"#utility.yul\":10497:10522   */\n      swap2\n      pop\n        /* \"#utility.yul\":10410:10528   */\n      pop\n        /* \"#utility.yul\":10359:10528   */\n      swap3\n      swap2\n      pop\n      pop\n      jump\t// out\n        /* \"#utility.yul\":10533:10828   */\n    tag_100:\n        /* \"#utility.yul\":10609:10613   */\n      0x00\n        /* \"#utility.yul\":10755:10784   */\n      tag_230\n        /* \"#utility.yul\":10780:10783   */\n      dup4\n        /* \"#utility.yul\":10774:10778   */\n      dup4\n        /* \"#utility.yul\":10755:10784   */\n      tag_99\n      jump\t// in\n    tag_230:\n        /* \"#utility.yul\":10747:10784   */\n      swap2\n      pop\n        /* \"#utility.yul\":10817:10820   */\n      dup3\n        /* \"#utility.yul\":10814:10815   */\n      0x02\n        /* \"#utility.yul\":10810:10821   */\n      mul\n        /* \"#utility.yul\":10804:10808   */\n      dup3\n        /* \"#utility.yul\":10801:10822   */\n      or\n        /* \"#utility.yul\":10793:10822   */\n      swap1\n      pop\n        /* \"#utility.yul\":10533:10828   */\n      swap3\n      swap2\n      pop\n      pop\n      jump\t// out\n        /* \"#utility.yul\":10833:12228   */\n    tag_53:\n        /* \"#utility.yul\":10950:10987   */\n      tag_232\n        /* \"#utility.yul\":10983:10986   */\n      dup3\n        /* \"#utility.yul\":10950:10987   */\n      tag_66\n      jump\t// in\n    tag_232:\n        /* \"#utility.yul\":11052:11070   */\n      0xffffffffffffffff\n        /* \"#utility.yul\":11044:11050   */\n      dup2\n        /* \"#utility.yul\":11041:11071   */\n      gt\n        /* \"#utility.yul\":11038:11094   */\n      iszero\n      tag_233\n      jumpi\n        /* \"#utility.yul\":11074:11092   */\n      tag_234\n      tag_73\n      jump\t// in\n    tag_234:\n        /* \"#utility.yul\":11038:11094   */\n    tag_233:\n        /* \"#utility.yul\":11118:11156   */\n      tag_235\n        /* \"#utility.yul\":11150:11154   */\n      dup3\n        /* \"#utility.yul\":11144:11155   */\n      sload\n        /* \"#utility.yul\":11118:11156   */\n      tag_44\n      jump\t// in\n    tag_235:\n        /* \"#utility.yul\":11203:11270   */\n      tag_236\n        /* \"#utility.yul\":11263:11269   */\n      dup3\n        /* \"#utility.yul\":11255:11261   */\n      dup3\n        /* \"#utility.yul\":11249:11253   */\n      dup6\n        /* \"#utility.yul\":11203:11270   */\n      tag_97\n      jump\t// in\n    tag_236:\n        /* \"#utility.yul\":11297:11298   */\n      0x00\n        /* \"#utility.yul\":11321:11325   */\n      0x20\n        /* \"#utility.yul\":11308:11325   */\n      swap1\n      pop\n        /* \"#utility.yul\":11353:11355   */\n      0x1f\n        /* \"#utility.yul\":11345:11351   */\n      dup4\n        /* \"#utility.yul\":11342:11356   */\n      gt\n        /* \"#utility.yul\":11370:11371   */\n      0x01\n        /* \"#utility.yul\":11365:11983   */\n      dup2\n      eq\n      tag_238\n      jumpi\n        /* \"#utility.yul\":12027:12028   */\n      0x00\n        /* \"#utility.yul\":12044:12050   */\n      dup5\n        /* \"#utility.yul\":12041:12118   */\n      iszero\n      tag_239\n      jumpi\n        /* \"#utility.yul\":12093:12102   */\n      dup3\n        /* \"#utility.yul\":12088:12091   */\n      dup8\n        /* \"#utility.yul\":12084:12103   */\n      add\n        /* \"#utility.yul\":12078:12104   */\n      mload\n        /* \"#utility.yul\":12069:12104   */\n      swap1\n      pop\n        /* \"#utility.yul\":12041:12118   */\n    tag_239:\n        /* \"#utility.yul\":12144:12211   */\n      tag_240\n        /* \"#utility.yul\":12204:12210   */\n      dup6\n        /* \"#utility.yul\":12197:12202   */\n      dup3\n        /* \"#utility.yul\":12144:12211   */\n      tag_100\n      jump\t// in\n    tag_240:\n        /* \"#utility.yul\":12138:12142   */\n      dup7\n        /* \"#utility.yul\":12131:12212   */\n      sstore\n        /* \"#utility.yul\":12000:12222   */\n      pop\n        /* \"#utility.yul\":11335:12222   */\n      jump(tag_237)\n        /* \"#utility.yul\":11365:11983   */\n    tag_238:\n        /* \"#utility.yul\":11417:11421   */\n      0x1f\n        /* \"#utility.yul\":11413:11422   */\n      not\n        /* \"#utility.yul\":11405:11411   */\n      dup5\n        /* \"#utility.yul\":11401:11423   */\n      and\n        /* \"#utility.yul\":11451:11488   */\n      tag_241\n        /* \"#utility.yul\":11483:11487   */\n      dup7\n        /* \"#utility.yul\":11451:11488   */\n      tag_86\n      jump\t// in\n    tag_241:\n        /* \"#utility.yul\":11510:11511   */\n      0x00\n        /* \"#utility.yul\":11524:11732   */\n    tag_242:\n        /* \"#utility.yul\":11538:11545   */\n      dup3\n        /* \"#utility.yul\":11535:11536   */\n      dup2\n        /* \"#utility.yul\":11532:11546   */\n      lt\n        /* \"#utility.yul\":11524:11732   */\n      iszero\n      tag_244\n      jumpi\n        /* \"#utility.yul\":11617:11626   */\n      dup5\n        /* \"#utility.yul\":11612:11615   */\n      dup10\n        /* \"#utility.yul\":11608:11627   */\n      add\n        /* \"#utility.yul\":11602:11628   */\n      mload\n        /* \"#utility.yul\":11594:11600   */\n      dup3\n        /* \"#utility.yul\":11587:11629   */\n      sstore\n        /* \"#utility.yul\":11668:11669   */\n      0x01\n        /* \"#utility.yul\":11660:11666   */\n      dup3\n        /* \"#utility.yul\":11656:11670   */\n      add\n        /* \"#utility.yul\":11646:11670   */\n      swap2\n      pop\n        /* \"#utility.yul\":11715:11717   */\n      0x20\n        /* \"#utility.yul\":11704:11713   */\n      dup6\n        /* \"#utility.yul\":11700:11718   */\n      add\n        /* \"#utility.yul\":11687:11718   */\n      swap5\n      pop\n        /* \"#utility.yul\":11561:11565   */\n      0x20\n        /* \"#utility.yul\":11558:11559   */\n      dup2\n        /* \"#utility.yul\":11554:11566   */\n      add\n        /* \"#utility.yul\":11549:11566   */\n      swap1\n      pop\n        /* \"#utility.yul\":11524:11732   */\n      jump(tag_242)\n    tag_244:\n        /* \"#utility.yul\":11760:11766   */\n      dup7\n        /* \"#utility.yul\":11751:11758   */\n      dup4\n        /* \"#utility.yul\":11748:11767   */\n      lt\n        /* \"#utility.yul\":11745:11924   */\n      iszero\n      tag_245\n      jumpi\n        /* \"#utility.yul\":11818:11827   */\n      dup5\n        /* \"#utility.yul\":11813:11816   */\n      dup10\n        /* \"#utility.yul\":11809:11828   */\n      add\n        /* \"#utility.yul\":11803:11829   */\n      mload\n        /* \"#utility.yul\":11861:11909   */\n      tag_246\n        /* \"#utility.yul\":11903:11907   */\n      0x1f\n        /* \"#utility.yul\":11895:11901   */\n      dup10\n        /* \"#utility.yul\":11891:11908   */\n      and\n        /* \"#utility.yul\":11880:11889   */\n      dup3\n        /* \"#utility.yul\":11861:11909   */\n      tag_99\n      jump\t// in\n    tag_246:\n        /* \"#utility.yul\":11853:11859   */\n      dup4\n        /* \"#utility.yul\":11846:11910   */\n      sstore\n        /* \"#utility.yul\":11768:11924   */\n      pop\n        /* \"#utility.yul\":11745:11924   */\n    tag_245:\n        /* \"#utility.yul\":11970:11971   */\n      0x01\n        /* \"#utility.yul\":11966:11967   */\n      0x02\n        /* \"#utility.yul\":11958:11964   */\n      dup9\n        /* \"#utility.yul\":11954:11968   */\n      mul\n        /* \"#utility.yul\":11950:11972   */\n      add\n        /* \"#utility.yul\":11944:11948   */\n      dup9\n        /* \"#utility.yul\":11937:11973   */\n      sstore\n        /* \"#utility.yul\":11372:11983   */\n      pop\n      pop\n      pop\n        /* \"#utility.yul\":11335:12222   */\n    tag_237:\n      pop\n        /* \"#utility.yul\":10925:12228   */\n      pop\n      pop\n      pop\n        /* \"#utility.yul\":10833:12228   */\n      pop\n      pop\n      jump\t// out\n        /* \"#utility.yul\":12234:12382   */\n    tag_101:\n        /* \"#utility.yul\":12336:12347   */\n      0x00\n        /* \"#utility.yul\":12373:12376   */\n      dup2\n        /* \"#utility.yul\":12358:12376   */\n      swap1\n      pop\n        /* \"#utility.yul\":12234:12382   */\n      swap3\n      swap2\n      pop\n      pop\n      jump\t// out\n        /* \"#utility.yul\":12412:12742   */\n    tag_102:\n        /* \"#utility.yul\":12528:12531   */\n      0x00\n        /* \"#utility.yul\":12549:12638   */\n      tag_249\n        /* \"#utility.yul\":12631:12637   */\n      dup4\n        /* \"#utility.yul\":12626:12629   */\n      dup6\n        /* \"#utility.yul\":12549:12638   */\n      tag_101\n      jump\t// in\n    tag_249:\n        /* \"#utility.yul\":12542:12638   */\n      swap4\n      pop\n        /* \"#utility.yul\":12648:12704   */\n      tag_250\n        /* \"#utility.yul\":12697:12703   */\n      dup4\n        /* \"#utility.yul\":12692:12695   */\n      dup6\n        /* \"#utility.yul\":12685:12690   */\n      dup5\n        /* \"#utility.yul\":12648:12704   */\n      tag_77\n      jump\t// in\n    tag_250:\n        /* \"#utility.yul\":12729:12735   */\n      dup3\n        /* \"#utility.yul\":12724:12727   */\n      dup5\n        /* \"#utility.yul\":12720:12736   */\n      add\n        /* \"#utility.yul\":12713:12736   */\n      swap1\n      pop\n        /* \"#utility.yul\":12412:12742   */\n      swap4\n      swap3\n      pop\n      pop\n      pop\n      jump\t// out\n        /* \"#utility.yul\":12748:13043   */\n    tag_55:\n        /* \"#utility.yul\":12890:12893   */\n      0x00\n        /* \"#utility.yul\":12912:13017   */\n      tag_252\n        /* \"#utility.yul\":13013:13016   */\n      dup3\n        /* \"#utility.yul\":13004:13010   */\n      dup5\n        /* \"#utility.yul\":12996:13002   */\n      dup7\n        /* \"#utility.yul\":12912:13017   */\n      tag_102\n      jump\t// in\n    tag_252:\n        /* \"#utility.yul\":12905:13017   */\n      swap2\n      pop\n        /* \"#utility.yul\":13034:13037   */\n      dup2\n        /* \"#utility.yul\":13027:13037   */\n      swap1\n      pop\n        /* \"#utility.yul\":12748:13043   */\n      swap4\n      swap3\n      pop\n      pop\n      pop\n      jump\t// out\n        /* \"#utility.yul\":13049:13229   */\n    tag_103:\n        /* \"#utility.yul\":13097:13174   */\n      0x4e487b7100000000000000000000000000000000000000000000000000000000\n        /* \"#utility.yul\":13094:13095   */\n      0x00\n        /* \"#utility.yul\":13087:13175   */\n      mstore\n        /* \"#utility.yul\":13194:13198   */\n      0x11\n        /* \"#utility.yul\":13191:13192   */\n      0x04\n        /* \"#utility.yul\":13184:13199   */\n      mstore\n        /* \"#utility.yul\":13218:13222   */\n      0x24\n        /* \"#utility.yul\":13215:13216   */\n      0x00\n        /* \"#utility.yul\":13208:13223   */\n      revert\n        /* \"#utility.yul\":13235:13426   */\n    tag_58:\n        /* \"#utility.yul\":13275:13278   */\n      0x00\n        /* \"#utility.yul\":13294:13314   */\n      tag_255\n        /* \"#utility.yul\":13312:13313   */\n      dup3\n        /* \"#utility.yul\":13294:13314   */\n      tag_59\n      jump\t// in\n    tag_255:\n        /* \"#utility.yul\":13289:13314   */\n      swap2\n      pop\n        /* \"#utility.yul\":13328:13348   */\n      tag_256\n        /* \"#utility.yul\":13346:13347   */\n      dup4\n        /* \"#utility.yul\":13328:13348   */\n      tag_59\n      jump\t// in\n    tag_256:\n        /* \"#utility.yul\":13323:13348   */\n      swap3\n      pop\n        /* \"#utility.yul\":13371:13372   */\n      dup3\n        /* \"#utility.yul\":13368:13369   */\n      dup3\n        /* \"#utility.yul\":13364:13373   */\n      add\n        /* \"#utility.yul\":13357:13373   */\n      swap1\n      pop\n        /* \"#utility.yul\":13392:13395   */\n      dup1\n        /* \"#utility.yul\":13389:13390   */\n      dup3\n        /* \"#utility.yul\":13386:13396   */\n      gt\n        /* \"#utility.yul\":13383:13419   */\n      iszero\n      tag_257\n      jumpi\n        /* \"#utility.yul\":13399:13417   */\n      tag_258\n      tag_103\n      jump\t// in\n    tag_258:\n        /* \"#utility.yul\":13383:13419   */\n    tag_257:\n        /* \"#utility.yul\":13235:13426   */\n      swap3\n      swap2\n      pop\n      pop\n      jump\t// out\n\n    auxdata: 0xa2646970667358221220a6208d690ddd7d0c27ce7bd000e22576c3ad25ce1e91181abcaf9b9fbc9ea16564736f6c63430008180033\n}\n",
				"bytecode": {
					"linkReferences": {},
					"object": "60806040525f805f6101000a81548160ff0219169083151502179055505f6002556040518060400160405280600181526020017f30000000000000000000000000000000000000000000000000000000000000008152506003908162000066919062000356565b5073f805636a05bb396faf9bb6954f4112d8c8f6b10460045f6101000a81548173ffffffffffffffffffffffffffffffffffffffff021916908373ffffffffffffffffffffffffffffffffffffffff1602179055507f48656c6c6f20576f726c64210000000000000000000000000000000000000000600555348015620000eb575f80fd5b506200043a565b5f81519050919050565b7f4e487b71000000000000000000000000000000000000000000000000000000005f52604160045260245ffd5b7f4e487b71000000000000000000000000000000000000000000000000000000005f52602260045260245ffd5b5f60028204905060018216806200016e57607f821691505b60208210810362000184576200018362000129565b5b50919050565b5f819050815f5260205f209050919050565b5f6020601f8301049050919050565b5f82821b905092915050565b5f60088302620001e87fffffffffffffffffffffffffffffffffffffffffffffffffffffffffffffffff82620001ab565b620001f48683620001ab565b95508019841693508086168417925050509392505050565b5f819050919050565b5f819050919050565b5f6200023e6200023862000232846200020c565b62000215565b6200020c565b9050919050565b5f819050919050565b62000259836200021e565b62000271620002688262000245565b848454620001b7565b825550505050565b5f90565b6200028762000279565b620002948184846200024e565b505050565b5b81811015620002bb57620002af5f826200027d565b6001810190506200029a565b5050565b601f8211156200030a57620002d4816200018a565b620002df846200019c565b81016020851015620002ef578190505b62000307620002fe856200019c565b83018262000299565b50505b505050565b5f82821c905092915050565b5f6200032c5f19846008026200030f565b1980831691505092915050565b5f6200034683836200031b565b9150826002028217905092915050565b6200036182620000f2565b67ffffffffffffffff8111156200037d576200037c620000fc565b5b62000389825462000156565b62000396828285620002bf565b5f60209050601f831160018114620003cc575f8415620003b7578287015190505b620003c3858262000339565b86555062000432565b601f198416620003dc866200018a565b5f5b828110156200040557848901518255600182019150602085019450602081019050620003de565b8683101562000425578489015162000421601f8916826200031b565b8355505b6001600288020188555050505b505050505050565b610ae780620004485f395ff3fe608060405234801561000f575f80fd5b506004361061007b575f3560e01c8063678aa4b811610059578063678aa4b8146100ea5780636f760f411461011a57806385c3c41114610136578063da27ae76146101545761007b565b80632e64cec11461007f578063510f17c51461009d5780636057361d146100ce575b5f80fd5b610087610170565b60405161009491906103ab565b60405180910390f35b6100b760048036038101906100b291906103ff565b610179565b6040516100c59291906104b4565b60405180910390f35b6100e860048036038101906100e391906103ff565b61022e565b005b61010460048036038101906100ff919061060e565b610251565b60405161011191906103ab565b60405180910390f35b610134600480360381019061012f91906106b2565b61027e565b005b61013e610348565b60405161014b9190610729565b60405180910390f35b61016e600480360381019061016991906103ff565b610358565b005b5f600154905090565b60068181548110610188575f80fd5b905f5260205f2090600202015f91509050805f0180546101a79061076f565b80601f01602080910402602001604051908101604052809291908181526020018280546101d39061076f565b801561021e5780601f106101f55761010080835404028352916020019161021e565b820191905f5260205f20905b81548152906001019060200180831161020157829003601f168201915b5050505050908060010154905082565b8060018190555060015f806101000a81548160ff02191690831515021790555050565b6007818051602081018201805184825260208301602085012081835280955050505050505f915090505481565b6006604051806040016040528085858080601f0160208091040260200160405190810160405280939291908181526020018383808284375f81840152601f19601f82011690508083019250505050505050815260200183815250908060018154018082558091505060019003905f5260205f2090600202015f909190919091505f820151815f019081610311919061093c565b506020820151816001015550508060078484604051610331929190610a39565b908152602001604051809103902081905550505050565b5f8054906101000a900460ff1681565b806001819055506001805f8282546103709190610a7e565b9250508190555060015f806101000a81548160ff02191690831515021790555050565b5f819050919050565b6103a581610393565b82525050565b5f6020820190506103be5f83018461039c565b92915050565b5f604051905090565b5f80fd5b5f80fd5b6103de81610393565b81146103e8575f80fd5b50565b5f813590506103f9816103d5565b92915050565b5f60208284031215610414576104136103cd565b5b5f610421848285016103eb565b91505092915050565b5f81519050919050565b5f82825260208201905092915050565b5f5b83811015610461578082015181840152602081019050610446565b5f8484015250505050565b5f601f19601f8301169050919050565b5f6104868261042a565b6104908185610434565b93506104a0818560208601610444565b6104a98161046c565b840191505092915050565b5f6040820190508181035f8301526104cc818561047c565b90506104db602083018461039c565b9392505050565b5f80fd5b5f80fd5b7f4e487b71000000000000000000000000000000000000000000000000000000005f52604160045260245ffd5b6105208261046c565b810181811067ffffffffffffffff8211171561053f5761053e6104ea565b5b80604052505050565b5f6105516103c4565b905061055d8282610517565b919050565b5f67ffffffffffffffff82111561057c5761057b6104ea565b5b6105858261046c565b9050602081019050919050565b828183375f83830152505050565b5f6105b26105ad84610562565b610548565b9050828152602081018484840111156105ce576105cd6104e6565b5b6105d9848285610592565b509392505050565b5f82601f8301126105f5576105f46104e2565b5b81356106058482602086016105a0565b91505092915050565b5f60208284031215610623576106226103cd565b5b5f82013567ffffffffffffffff8111156106405761063f6103d1565b5b61064c848285016105e1565b91505092915050565b5f80fd5b5f80fd5b5f8083601f840112610672576106716104e2565b5b8235905067ffffffffffffffff81111561068f5761068e610655565b5b6020830191508360018202830111156106ab576106aa610659565b5b9250929050565b5f805f604084860312156106c9576106c86103cd565b5b5f84013567ffffffffffffffff8111156106e6576106e56103d1565b5b6106f28682870161065d565b93509350506020610705868287016103eb565b9150509250925092565b5f8115159050919050565b6107238161070f565b82525050565b5f60208201905061073c5f83018461071a565b92915050565b7f4e487b71000000000000000000000000000000000000000000000000000000005f52602260045260245ffd5b5f600282049050600182168061078657607f821691505b60208210810361079957610798610742565b5b50919050565b5f819050815f5260205f209050919050565b5f6020601f8301049050919050565b5f82821b905092915050565b5f600883026107fb7fffffffffffffffffffffffffffffffffffffffffffffffffffffffffffffffff826107c0565b61080586836107c0565b95508019841693508086168417925050509392505050565b5f819050919050565b5f61084061083b61083684610393565b61081d565b610393565b9050919050565b5f819050919050565b61085983610826565b61086d61086582610847565b8484546107cc565b825550505050565b5f90565b610881610875565b61088c818484610850565b505050565b5b818110156108af576108a45f82610879565b600181019050610892565b5050565b601f8211156108f4576108c58161079f565b6108ce846107b1565b810160208510156108dd578190505b6108f16108e9856107b1565b830182610891565b50505b505050565b5f82821c905092915050565b5f6109145f19846008026108f9565b1980831691505092915050565b5f61092c8383610905565b9150826002028217905092915050565b6109458261042a565b67ffffffffffffffff81111561095e5761095d6104ea565b5b610968825461076f565b6109738282856108b3565b5f60209050601f8311600181146109a4575f8415610992578287015190505b61099c8582610921565b865550610a03565b601f1984166109b28661079f565b5f5b828110156109d9578489015182556001820191506020850194506020810190506109b4565b868310156109f657848901516109f2601f891682610905565b8355505b6001600288020188555050505b505050505050565b5f81905092915050565b5f610a208385610a0b565b9350610a2d838584610592565b82840190509392505050565b5f610a45828486610a15565b91508190509392505050565b7f4e487b71000000000000000000000000000000000000000000000000000000005f52601160045260245ffd5b5f610a8882610393565b9150610a9383610393565b9250828201905080821115610aab57610aaa610a51565b5b9291505056fea2646970667358221220a6208d690ddd7d0c27ce7bd000e22576c3ad25ce1e91181abcaf9b9fbc9ea16564736f6c63430008180033",
					"opcodes": "PUSH1 0x80 PUSH1 0x40 MSTORE PUSH0 DUP1 PUSH0 PUSH2 0x100 EXP DUP2 SLOAD DUP2 PUSH1 0xFF MUL NOT AND SWAP1 DUP4 ISZERO ISZERO MUL OR SWAP1 SSTORE POP PUSH0 PUSH1 0x2 SSTORE PUSH1 0x40 MLOAD DUP1 PUSH1 0x40 ADD PUSH1 0x40 MSTORE DUP1 PUSH1 0x1 DUP2 MSTORE PUSH1 0x20 ADD PUSH32 0x3000000000000000000000000000000000000000000000000000000000000000 DUP2 MSTORE POP PUSH1 0x3 SWAP1 DUP2 PUSH3 0x66 SWAP2 SWAP1 PUSH3 0x356 JUMP JUMPDEST POP PUSH20 0xF805636A05BB396FAF9BB6954F4112D8C8F6B104 PUSH1 0x4 PUSH0 PUSH2 0x100 EXP DUP2 SLOAD DUP2 PUSH20 0xFFFFFFFFFFFFFFFFFFFFFFFFFFFFFFFFFFFFFFFF MUL NOT AND SWAP1 DUP4 PUSH20 0xFFFFFFFFFFFFFFFFFFFFFFFFFFFFFFFFFFFFFFFF AND MUL OR SWAP1 SSTORE POP PUSH32 0x48656C6C6F20576F726C64210000000000000000000000000000000000000000 PUSH1 0x5 SSTORE CALLVALUE DUP1 ISZERO PUSH3 0xEB JUMPI PUSH0 DUP1 REVERT JUMPDEST POP PUSH3 0x43A JUMP JUMPDEST PUSH0 DUP2 MLOAD SWAP1 POP SWAP2 SWAP1 POP JUMP JUMPDEST PUSH32 0x4E487B7100000000000000000000000000000000000000000000000000000000 PUSH0 MSTORE PUSH1 0x41 PUSH1 0x4 MSTORE PUSH1 0x24 PUSH0 REVERT JUMPDEST PUSH32 0x4E487B7100000000000000000000000000000000000000000000000000000000 PUSH0 MSTORE PUSH1 0x22 PUSH1 0x4 MSTORE PUSH1 0x24 PUSH0 REVERT JUMPDEST PUSH0 PUSH1 0x2 DUP3 DIV SWAP1 POP PUSH1 0x1 DUP3 AND DUP1 PUSH3 0x16E JUMPI PUSH1 0x7F DUP3 AND SWAP2 POP JUMPDEST PUSH1 0x20 DUP3 LT DUP2 SUB PUSH3 0x184 JUMPI PUSH3 0x183 PUSH3 0x129 JUMP JUMPDEST JUMPDEST POP SWAP2 SWAP1 POP JUMP JUMPDEST PUSH0 DUP2 SWAP1 POP DUP2 PUSH0 MSTORE PUSH1 0x20 PUSH0 KECCAK256 SWAP1 POP SWAP2 SWAP1 POP JUMP JUMPDEST PUSH0 PUSH1 0x20 PUSH1 0x1F DUP4 ADD DIV SWAP1 POP SWAP2 SWAP1 POP JUMP JUMPDEST PUSH0 DUP3 DUP3 SHL SWAP1 POP SWAP3 SWAP2 POP POP JUMP JUMPDEST PUSH0 PUSH1 0x8 DUP4 MUL PUSH3 0x1E8 PUSH32 0xFFFFFFFFFFFFFFFFFFFFFFFFFFFFFFFFFFFFFFFFFFFFFFFFFFFFFFFFFFFFFFFF DUP3 PUSH3 0x1AB JUMP JUMPDEST PUSH3 0x1F4 DUP7 DUP4 PUSH3 0x1AB JUMP JUMPDEST SWAP6 POP DUP1 NOT DUP5 AND SWAP4 POP DUP1 DUP7 AND DUP5 OR SWAP3 POP POP POP SWAP4 SWAP3 POP POP POP JUMP JUMPDEST PUSH0 DUP2 SWAP1 POP SWAP2 SWAP1 POP JUMP JUMPDEST PUSH0 DUP2 SWAP1 POP SWAP2 SWAP1 POP JUMP JUMPDEST PUSH0 PUSH3 0x23E PUSH3 0x238 PUSH3 0x232 DUP5 PUSH3 0x20C JUMP JUMPDEST PUSH3 0x215 JUMP JUMPDEST PUSH3 0x20C JUMP JUMPDEST SWAP1 POP SWAP2 SWAP1 POP JUMP JUMPDEST PUSH0 DUP2 SWAP1 POP SWAP2 SWAP1 POP JUMP JUMPDEST PUSH3 0x259 DUP4 PUSH3 0x21E JUMP JUMPDEST PUSH3 0x271 PUSH3 0x268 DUP3 PUSH3 0x245 JUMP JUMPDEST DUP5 DUP5 SLOAD PUSH3 0x1B7 JUMP JUMPDEST DUP3 SSTORE POP POP POP POP JUMP JUMPDEST PUSH0 SWAP1 JUMP JUMPDEST PUSH3 0x287 PUSH3 0x279 JUMP JUMPDEST PUSH3 0x294 DUP2 DUP5 DUP5 PUSH3 0x24E JUMP JUMPDEST POP POP POP JUMP JUMPDEST JUMPDEST DUP2 DUP2 LT ISZERO PUSH3 0x2BB JUMPI PUSH3 0x2AF PUSH0 DUP3 PUSH3 0x27D JUMP JUMPDEST PUSH1 0x1 DUP2 ADD SWAP1 POP PUSH3 0x29A JUMP JUMPDEST POP POP JUMP JUMPDEST PUSH1 0x1F DUP3 GT ISZERO PUSH3 0x30A JUMPI PUSH3 0x2D4 DUP2 PUSH3 0x18A JUMP JUMPDEST PUSH3 0x2DF DUP5 PUSH3 0x19C JUMP JUMPDEST DUP2 ADD PUSH1 0x20 DUP6 LT ISZERO PUSH3 0x2EF JUMPI DUP2 SWAP1 POP JUMPDEST PUSH3 0x307 PUSH3 0x2FE DUP6 PUSH3 0x19C JUMP JUMPDEST DUP4 ADD DUP3 PUSH3 0x299 JUMP JUMPDEST POP POP JUMPDEST POP POP POP JUMP JUMPDEST PUSH0 DUP3 DUP3 SHR SWAP1 POP SWAP3 SWAP2 POP POP JUMP JUMPDEST PUSH0 PUSH3 0x32C PUSH0 NOT DUP5 PUSH1 0x8 MUL PUSH3 0x30F JUMP JUMPDEST NOT DUP1 DUP4 AND SWAP2 POP POP SWAP3 SWAP2 POP POP JUMP JUMPDEST PUSH0 PUSH3 0x346 DUP4 DUP4 PUSH3 0x31B JUMP JUMPDEST SWAP2 POP DUP3 PUSH1 0x2 MUL DUP3 OR SWAP1 POP SWAP3 SWAP2 POP POP JUMP JUMPDEST PUSH3 0x361 DUP3 PUSH3 0xF2 JUMP JUMPDEST PUSH8 0xFFFFFFFFFFFFFFFF DUP2 GT ISZERO PUSH3 0x37D JUMPI PUSH3 0x37C PUSH3 0xFC JUMP JUMPDEST JUMPDEST PUSH3 0x389 DUP3 SLOAD PUSH3 0x156 JUMP JUMPDEST PUSH3 0x396 DUP3 DUP3 DUP6 PUSH3 0x2BF JUMP JUMPDEST PUSH0 PUSH1 0x20 SWAP1 POP PUSH1 0x1F DUP4 GT PUSH1 0x1 DUP2 EQ PUSH3 0x3CC JUMPI PUSH0 DUP5 ISZERO PUSH3 0x3B7 JUMPI DUP3 DUP8 ADD MLOAD SWAP1 POP JUMPDEST PUSH3 0x3C3 DUP6 DUP3 PUSH3 0x339 JUMP JUMPDEST DUP7 SSTORE POP PUSH3 0x432 JUMP JUMPDEST PUSH1 0x1F NOT DUP5 AND PUSH3 0x3DC DUP7 PUSH3 0x18A JUMP JUMPDEST PUSH0 JUMPDEST DUP3 DUP2 LT ISZERO PUSH3 0x405 JUMPI DUP5 DUP10 ADD MLOAD DUP3 SSTORE PUSH1 0x1 DUP3 ADD SWAP2 POP PUSH1 0x20 DUP6 ADD SWAP5 POP PUSH1 0x20 DUP2 ADD SWAP1 POP PUSH3 0x3DE JUMP JUMPDEST DUP7 DUP4 LT ISZERO PUSH3 0x425 JUMPI DUP5 DUP10 ADD MLOAD PUSH3 0x421 PUSH1 0x1F DUP10 AND DUP3 PUSH3 0x31B JUMP JUMPDEST DUP4 SSTORE POP JUMPDEST PUSH1 0x1 PUSH1 0x2 DUP9 MUL ADD DUP9 SSTORE POP POP POP JUMPDEST POP POP POP POP POP POP JUMP JUMPDEST PUSH2 0xAE7 DUP1 PUSH3 0x448 PUSH0 CODECOPY PUSH0 RETURN INVALID PUSH1 0x80 PUSH1 0x40 MSTORE CALLVALUE DUP1 ISZERO PUSH2 0xF JUMPI PUSH0 DUP1 REVERT JUMPDEST POP PUSH1 0x4 CALLDATASIZE LT PUSH2 0x7B JUMPI PUSH0 CALLDATALOAD PUSH1 0xE0 SHR DUP1 PUSH4 0x678AA4B8 GT PUSH2 0x59 JUMPI DUP1 PUSH4 0x678AA4B8 EQ PUSH2 0xEA JUMPI DUP1 PUSH4 0x6F760F41 EQ PUSH2 0x11A JUMPI DUP1 PUSH4 0x85C3C411 EQ PUSH2 0x136 JUMPI DUP1 PUSH4 0xDA27AE76 EQ PUSH2 0x154 JUMPI PUSH2 0x7B JUMP JUMPDEST DUP1 PUSH4 0x2E64CEC1 EQ PUSH2 0x7F JUMPI DUP1 PUSH4 0x510F17C5 EQ PUSH2 0x9D JUMPI DUP1 PUSH4 0x6057361D EQ PUSH2 0xCE JUMPI JUMPDEST PUSH0 DUP1 REVERT JUMPDEST PUSH2 0x87 PUSH2 0x170 JUMP JUMPDEST PUSH1 0x40 MLOAD PUSH2 0x94 SWAP2 SWAP1 PUSH2 0x3AB JUMP JUMPDEST PUSH1 0x40 MLOAD DUP1 SWAP2 SUB SWAP1 RETURN JUMPDEST PUSH2 0xB7 PUSH1 0x4 DUP1 CALLDATASIZE SUB DUP2 ADD SWAP1 PUSH2 0xB2 SWAP2 SWAP1 PUSH2 0x3FF JUMP JUMPDEST PUSH2 0x179 JUMP JUMPDEST PUSH1 0x40 MLOAD PUSH2 0xC5 SWAP3 SWAP2 SWAP1 PUSH2 0x4B4 JUMP JUMPDEST PUSH1 0x40 MLOAD DUP1 SWAP2 SUB SWAP1 RETURN JUMPDEST PUSH2 0xE8 PUSH1 0x4 DUP1 CALLDATASIZE SUB DUP2 ADD SWAP1 PUSH2 0xE3 SWAP2 SWAP1 PUSH2 0x3FF JUMP JUMPDEST PUSH2 0x22E JUMP JUMPDEST STOP JUMPDEST PUSH2 0x104 PUSH1 0x4 DUP1 CALLDATASIZE SUB DUP2 ADD SWAP1 PUSH2 0xFF SWAP2 SWAP1 PUSH2 0x60E JUMP JUMPDEST PUSH2 0x251 JUMP JUMPDEST PUSH1 0x40 MLOAD PUSH2 0x111 SWAP2 SWAP1 PUSH2 0x3AB JUMP JUMPDEST PUSH1 0x40 MLOAD DUP1 SWAP2 SUB SWAP1 RETURN JUMPDEST PUSH2 0x134 PUSH1 0x4 DUP1 CALLDATASIZE SUB DUP2 ADD SWAP1 PUSH2 0x12F SWAP2 SWAP1 PUSH2 0x6B2 JUMP JUMPDEST PUSH2 0x27E JUMP JUMPDEST STOP JUMPDEST PUSH2 0x13E PUSH2 0x348 JUMP JUMPDEST PUSH1 0x40 MLOAD PUSH2 0x14B SWAP2 SWAP1 PUSH2 0x729 JUMP JUMPDEST PUSH1 0x40 MLOAD DUP1 SWAP2 SUB SWAP1 RETURN JUMPDEST PUSH2 0x16E PUSH1 0x4 DUP1 CALLDATASIZE SUB DUP2 ADD SWAP1 PUSH2 0x169 SWAP2 SWAP1 PUSH2 0x3FF JUMP JUMPDEST PUSH2 0x358 JUMP JUMPDEST STOP JUMPDEST PUSH0 PUSH1 0x1 SLOAD SWAP1 POP SWAP1 JUMP JUMPDEST PUSH1 0x6 DUP2 DUP2 SLOAD DUP2 LT PUSH2 0x188 JUMPI PUSH0 DUP1 REVERT JUMPDEST SWAP1 PUSH0 MSTORE PUSH1 0x20 PUSH0 KECCAK256 SWAP1 PUSH1 0x2 MUL ADD PUSH0 SWAP2 POP SWAP1 POP DUP1 PUSH0 ADD DUP1 SLOAD PUSH2 0x1A7 SWAP1 PUSH2 0x76F JUMP JUMPDEST DUP1 PUSH1 0x1F ADD PUSH1 0x20 DUP1 SWAP2 DIV MUL PUSH1 0x20 ADD PUSH1 0x40 MLOAD SWAP1 DUP2 ADD PUSH1 0x40 MSTORE DUP1 SWAP3 SWAP2 SWAP1 DUP2 DUP2 MSTORE PUSH1 0x20 ADD DUP3 DUP1 SLOAD PUSH2 0x1D3 SWAP1 PUSH2 0x76F JUMP JUMPDEST DUP1 ISZERO PUSH2 0x21E JUMPI DUP1 PUSH1 0x1F LT PUSH2 0x1F5 JUMPI PUSH2 0x100 DUP1 DUP4 SLOAD DIV MUL DUP4 MSTORE SWAP2 PUSH1 0x20 ADD SWAP2 PUSH2 0x21E JUMP JUMPDEST DUP3 ADD SWAP2 SWAP1 PUSH0 MSTORE PUSH1 0x20 PUSH0 KECCAK256 SWAP1 JUMPDEST DUP2 SLOAD DUP2 MSTORE SWAP1 PUSH1 0x1 ADD SWAP1 PUSH1 0x20 ADD DUP1 DUP4 GT PUSH2 0x201 JUMPI DUP3 SWAP1 SUB PUSH1 0x1F AND DUP3 ADD SWAP2 JUMPDEST POP POP POP POP POP SWAP1 DUP1 PUSH1 0x1 ADD SLOAD SWAP1 POP DUP3 JUMP JUMPDEST DUP1 PUSH1 0x1 DUP2 SWAP1 SSTORE POP PUSH1 0x1 PUSH0 DUP1 PUSH2 0x100 EXP DUP2 SLOAD DUP2 PUSH1 0xFF MUL NOT AND SWAP1 DUP4 ISZERO ISZERO MUL OR SWAP1 SSTORE POP POP JUMP JUMPDEST PUSH1 0x7 DUP2 DUP1 MLOAD PUSH1 0x20 DUP2 ADD DUP3 ADD DUP1 MLOAD DUP5 DUP3 MSTORE PUSH1 0x20 DUP4 ADD PUSH1 0x20 DUP6 ADD KECCAK256 DUP2 DUP4 MSTORE DUP1 SWAP6 POP POP POP POP POP POP PUSH0 SWAP2 POP SWAP1 POP SLOAD DUP2 JUMP JUMPDEST PUSH1 0x6 PUSH1 0x40 MLOAD DUP1 PUSH1 0x40 ADD PUSH1 0x40 MSTORE DUP1 DUP6 DUP6 DUP1 DUP1 PUSH1 0x1F ADD PUSH1 0x20 DUP1 SWAP2 DIV MUL PUSH1 0x20 ADD PUSH1 0x40 MLOAD SWAP1 DUP2 ADD PUSH1 0x40 MSTORE DUP1 SWAP4 SWAP3 SWAP2 SWAP1 DUP2 DUP2 MSTORE PUSH1 0x20 ADD DUP4 DUP4 DUP1 DUP3 DUP5 CALLDATACOPY PUSH0 DUP2 DUP5 ADD MSTORE PUSH1 0x1F NOT PUSH1 0x1F DUP3 ADD AND SWAP1 POP DUP1 DUP4 ADD SWAP3 POP POP POP POP POP POP POP DUP2 MSTORE PUSH1 0x20 ADD DUP4 DUP2 MSTORE POP SWAP1 DUP1 PUSH1 0x1 DUP2 SLOAD ADD DUP1 DUP3 SSTORE DUP1 SWAP2 POP POP PUSH1 0x1 SWAP1 SUB SWAP1 PUSH0 MSTORE PUSH1 0x20 PUSH0 KECCAK256 SWAP1 PUSH1 0x2 MUL ADD PUSH0 SWAP1 SWAP2 SWAP1 SWAP2 SWAP1 SWAP2 POP PUSH0 DUP3 ADD MLOAD DUP2 PUSH0 ADD SWAP1 DUP2 PUSH2 0x311 SWAP2 SWAP1 PUSH2 0x93C JUMP JUMPDEST POP PUSH1 0x20 DUP3 ADD MLOAD DUP2 PUSH1 0x1 ADD SSTORE POP POP DUP1 PUSH1 0x7 DUP5 DUP5 PUSH1 0x40 MLOAD PUSH2 0x331 SWAP3 SWAP2 SWAP1 PUSH2 0xA39 JUMP JUMPDEST SWAP1 DUP2 MSTORE PUSH1 0x20 ADD PUSH1 0x40 MLOAD DUP1 SWAP2 SUB SWAP1 KECCAK256 DUP2 SWAP1 SSTORE POP POP POP POP JUMP JUMPDEST PUSH0 DUP1 SLOAD SWAP1 PUSH2 0x100 EXP SWAP1 DIV PUSH1 0xFF AND DUP2 JUMP JUMPDEST DUP1 PUSH1 0x1 DUP2 SWAP1 SSTORE POP PUSH1 0x1 DUP1 PUSH0 DUP3 DUP3 SLOAD PUSH2 0x370 SWAP2 SWAP1 PUSH2 0xA7E JUMP JUMPDEST SWAP3 POP POP DUP2 SWAP1 SSTORE POP PUSH1 0x1 PUSH0 DUP1 PUSH2 0x100 EXP DUP2 SLOAD DUP2 PUSH1 0xFF MUL NOT AND SWAP1 DUP4 ISZERO ISZERO MUL OR SWAP1 SSTORE POP POP JUMP JUMPDEST PUSH0 DUP2 SWAP1 POP SWAP2 SWAP1 POP JUMP JUMPDEST PUSH2 0x3A5 DUP2 PUSH2 0x393 JUMP JUMPDEST DUP3 MSTORE POP POP JUMP JUMPDEST PUSH0 PUSH1 0x20 DUP3 ADD SWAP1 POP PUSH2 0x3BE PUSH0 DUP4 ADD DUP5 PUSH2 0x39C JUMP JUMPDEST SWAP3 SWAP2 POP POP JUMP JUMPDEST PUSH0 PUSH1 0x40 MLOAD SWAP1 POP SWAP1 JUMP JUMPDEST PUSH0 DUP1 REVERT JUMPDEST PUSH0 DUP1 REVERT JUMPDEST PUSH2 0x3DE DUP2 PUSH2 0x393 JUMP JUMPDEST DUP2 EQ PUSH2 0x3E8 JUMPI PUSH0 DUP1 REVERT JUMPDEST POP JUMP JUMPDEST PUSH0 DUP2 CALLDATALOAD SWAP1 POP PUSH2 0x3F9 DUP2 PUSH2 0x3D5 JUMP JUMPDEST SWAP3 SWAP2 POP POP JUMP JUMPDEST PUSH0 PUSH1 0x20 DUP3 DUP5 SUB SLT ISZERO PUSH2 0x414 JUMPI PUSH2 0x413 PUSH2 0x3CD JUMP JUMPDEST JUMPDEST PUSH0 PUSH2 0x421 DUP5 DUP3 DUP6 ADD PUSH2 0x3EB JUMP JUMPDEST SWAP2 POP POP SWAP3 SWAP2 POP POP JUMP JUMPDEST PUSH0 DUP2 MLOAD SWAP1 POP SWAP2 SWAP1 POP JUMP JUMPDEST PUSH0 DUP3 DUP3 MSTORE PUSH1 0x20 DUP3 ADD SWAP1 POP SWAP3 SWAP2 POP POP JUMP JUMPDEST PUSH0 JUMPDEST DUP4 DUP2 LT ISZERO PUSH2 0x461 JUMPI DUP1 DUP3 ADD MLOAD DUP2 DUP5 ADD MSTORE PUSH1 0x20 DUP2 ADD SWAP1 POP PUSH2 0x446 JUMP JUMPDEST PUSH0 DUP5 DUP5 ADD MSTORE POP POP POP POP JUMP JUMPDEST PUSH0 PUSH1 0x1F NOT PUSH1 0x1F DUP4 ADD AND SWAP1 POP SWAP2 SWAP1 POP JUMP JUMPDEST PUSH0 PUSH2 0x486 DUP3 PUSH2 0x42A JUMP JUMPDEST PUSH2 0x490 DUP2 DUP6 PUSH2 0x434 JUMP JUMPDEST SWAP4 POP PUSH2 0x4A0 DUP2 DUP6 PUSH1 0x20 DUP7 ADD PUSH2 0x444 JUMP JUMPDEST PUSH2 0x4A9 DUP2 PUSH2 0x46C JUMP JUMPDEST DUP5 ADD SWAP2 POP POP SWAP3 SWAP2 POP POP JUMP JUMPDEST PUSH0 PUSH1 0x40 DUP3 ADD SWAP1 POP DUP2 DUP2 SUB PUSH0 DUP4 ADD MSTORE PUSH2 0x4CC DUP2 DUP6 PUSH2 0x47C JUMP JUMPDEST SWAP1 POP PUSH2 0x4DB PUSH1 0x20 DUP4 ADD DUP5 PUSH2 0x39C JUMP JUMPDEST SWAP4 SWAP3 POP POP POP JUMP JUMPDEST PUSH0 DUP1 REVERT JUMPDEST PUSH0 DUP1 REVERT JUMPDEST PUSH32 0x4E487B7100000000000000000000000000000000000000000000000000000000 PUSH0 MSTORE PUSH1 0x41 PUSH1 0x4 MSTORE PUSH1 0x24 PUSH0 REVERT JUMPDEST PUSH2 0x520 DUP3 PUSH2 0x46C JUMP JUMPDEST DUP2 ADD DUP2 DUP2 LT PUSH8 0xFFFFFFFFFFFFFFFF DUP3 GT OR ISZERO PUSH2 0x53F JUMPI PUSH2 0x53E PUSH2 0x4EA JUMP JUMPDEST JUMPDEST DUP1 PUSH1 0x40 MSTORE POP POP POP JUMP JUMPDEST PUSH0 PUSH2 0x551 PUSH2 0x3C4 JUMP JUMPDEST SWAP1 POP PUSH2 0x55D DUP3 DUP3 PUSH2 0x517 JUMP JUMPDEST SWAP2 SWAP1 POP JUMP JUMPDEST PUSH0 PUSH8 0xFFFFFFFFFFFFFFFF DUP3 GT ISZERO PUSH2 0x57C JUMPI PUSH2 0x57B PUSH2 0x4EA JUMP JUMPDEST JUMPDEST PUSH2 0x585 DUP3 PUSH2 0x46C JUMP JUMPDEST SWAP1 POP PUSH1 0x20 DUP2 ADD SWAP1 POP SWAP2 SWAP1 POP JUMP JUMPDEST DUP3 DUP2 DUP4 CALLDATACOPY PUSH0 DUP4 DUP4 ADD MSTORE POP POP POP JUMP JUMPDEST PUSH0 PUSH2 0x5B2 PUSH2 0x5AD DUP5 PUSH2 0x562 JUMP JUMPDEST PUSH2 0x548 JUMP JUMPDEST SWAP1 POP DUP3 DUP2 MSTORE PUSH1 0x20 DUP2 ADD DUP5 DUP5 DUP5 ADD GT ISZERO PUSH2 0x5CE JUMPI PUSH2 0x5CD PUSH2 0x4E6 JUMP JUMPDEST JUMPDEST PUSH2 0x5D9 DUP5 DUP3 DUP6 PUSH2 0x592 JUMP JUMPDEST POP SWAP4 SWAP3 POP POP POP JUMP JUMPDEST PUSH0 DUP3 PUSH1 0x1F DUP4 ADD SLT PUSH2 0x5F5 JUMPI PUSH2 0x5F4 PUSH2 0x4E2 JUMP JUMPDEST JUMPDEST DUP2 CALLDATALOAD PUSH2 0x605 DUP5 DUP3 PUSH1 0x20 DUP7 ADD PUSH2 0x5A0 JUMP JUMPDEST SWAP2 POP POP SWAP3 SWAP2 POP POP JUMP JUMPDEST PUSH0 PUSH1 0x20 DUP3 DUP5 SUB SLT ISZERO PUSH2 0x623 JUMPI PUSH2 0x622 PUSH2 0x3CD JUMP JUMPDEST JUMPDEST PUSH0 DUP3 ADD CALLDATALOAD PUSH8 0xFFFFFFFFFFFFFFFF DUP2 GT ISZERO PUSH2 0x640 JUMPI PUSH2 0x63F PUSH2 0x3D1 JUMP JUMPDEST JUMPDEST PUSH2 0x64C DUP5 DUP3 DUP6 ADD PUSH2 0x5E1 JUMP JUMPDEST SWAP2 POP POP SWAP3 SWAP2 POP POP JUMP JUMPDEST PUSH0 DUP1 REVERT JUMPDEST PUSH0 DUP1 REVERT JUMPDEST PUSH0 DUP1 DUP4 PUSH1 0x1F DUP5 ADD SLT PUSH2 0x672 JUMPI PUSH2 0x671 PUSH2 0x4E2 JUMP JUMPDEST JUMPDEST DUP3 CALLDATALOAD SWAP1 POP PUSH8 0xFFFFFFFFFFFFFFFF DUP2 GT ISZERO PUSH2 0x68F JUMPI PUSH2 0x68E PUSH2 0x655 JUMP JUMPDEST JUMPDEST PUSH1 0x20 DUP4 ADD SWAP2 POP DUP4 PUSH1 0x1 DUP3 MUL DUP4 ADD GT ISZERO PUSH2 0x6AB JUMPI PUSH2 0x6AA PUSH2 0x659 JUMP JUMPDEST JUMPDEST SWAP3 POP SWAP3 SWAP1 POP JUMP JUMPDEST PUSH0 DUP1 PUSH0 PUSH1 0x40 DUP5 DUP7 SUB SLT ISZERO PUSH2 0x6C9 JUMPI PUSH2 0x6C8 PUSH2 0x3CD JUMP JUMPDEST JUMPDEST PUSH0 DUP5 ADD CALLDATALOAD PUSH8 0xFFFFFFFFFFFFFFFF DUP2 GT ISZERO PUSH2 0x6E6 JUMPI PUSH2 0x6E5 PUSH2 0x3D1 JUMP JUMPDEST JUMPDEST PUSH2 0x6F2 DUP7 DUP3 DUP8 ADD PUSH2 0x65D JUMP JUMPDEST SWAP4 POP SWAP4 POP POP PUSH1 0x20 PUSH2 0x705 DUP7 DUP3 DUP8 ADD PUSH2 0x3EB JUMP JUMPDEST SWAP2 POP POP SWAP3 POP SWAP3 POP SWAP3 JUMP JUMPDEST PUSH0 DUP2 ISZERO ISZERO SWAP1 POP SWAP2 SWAP1 POP JUMP JUMPDEST PUSH2 0x723 DUP2 PUSH2 0x70F JUMP JUMPDEST DUP3 MSTORE POP POP JUMP JUMPDEST PUSH0 PUSH1 0x20 DUP3 ADD SWAP1 POP PUSH2 0x73C PUSH0 DUP4 ADD DUP5 PUSH2 0x71A JUMP JUMPDEST SWAP3 SWAP2 POP POP JUMP JUMPDEST PUSH32 0x4E487B7100000000000000000000000000000000000000000000000000000000 PUSH0 MSTORE PUSH1 0x22 PUSH1 0x4 MSTORE PUSH1 0x24 PUSH0 REVERT JUMPDEST PUSH0 PUSH1 0x2 DUP3 DIV SWAP1 POP PUSH1 0x1 DUP3 AND DUP1 PUSH2 0x786 JUMPI PUSH1 0x7F DUP3 AND SWAP2 POP JUMPDEST PUSH1 0x20 DUP3 LT DUP2 SUB PUSH2 0x799 JUMPI PUSH2 0x798 PUSH2 0x742 JUMP JUMPDEST JUMPDEST POP SWAP2 SWAP1 POP JUMP JUMPDEST PUSH0 DUP2 SWAP1 POP DUP2 PUSH0 MSTORE PUSH1 0x20 PUSH0 KECCAK256 SWAP1 POP SWAP2 SWAP1 POP JUMP JUMPDEST PUSH0 PUSH1 0x20 PUSH1 0x1F DUP4 ADD DIV SWAP1 POP SWAP2 SWAP1 POP JUMP JUMPDEST PUSH0 DUP3 DUP3 SHL SWAP1 POP SWAP3 SWAP2 POP POP JUMP JUMPDEST PUSH0 PUSH1 0x8 DUP4 MUL PUSH2 0x7FB PUSH32 0xFFFFFFFFFFFFFFFFFFFFFFFFFFFFFFFFFFFFFFFFFFFFFFFFFFFFFFFFFFFFFFFF DUP3 PUSH2 0x7C0 JUMP JUMPDEST PUSH2 0x805 DUP7 DUP4 PUSH2 0x7C0 JUMP JUMPDEST SWAP6 POP DUP1 NOT DUP5 AND SWAP4 POP DUP1 DUP7 AND DUP5 OR SWAP3 POP POP POP SWAP4 SWAP3 POP POP POP JUMP JUMPDEST PUSH0 DUP2 SWAP1 POP SWAP2 SWAP1 POP JUMP JUMPDEST PUSH0 PUSH2 0x840 PUSH2 0x83B PUSH2 0x836 DUP5 PUSH2 0x393 JUMP JUMPDEST PUSH2 0x81D JUMP JUMPDEST PUSH2 0x393 JUMP JUMPDEST SWAP1 POP SWAP2 SWAP1 POP JUMP JUMPDEST PUSH0 DUP2 SWAP1 POP SWAP2 SWAP1 POP JUMP JUMPDEST PUSH2 0x859 DUP4 PUSH2 0x826 JUMP JUMPDEST PUSH2 0x86D PUSH2 0x865 DUP3 PUSH2 0x847 JUMP JUMPDEST DUP5 DUP5 SLOAD PUSH2 0x7CC JUMP JUMPDEST DUP3 SSTORE POP POP POP POP JUMP JUMPDEST PUSH0 SWAP1 JUMP JUMPDEST PUSH2 0x881 PUSH2 0x875 JUMP JUMPDEST PUSH2 0x88C DUP2 DUP5 DUP5 PUSH2 0x850 JUMP JUMPDEST POP POP POP JUMP JUMPDEST JUMPDEST DUP2 DUP2 LT ISZERO PUSH2 0x8AF JUMPI PUSH2 0x8A4 PUSH0 DUP3 PUSH2 0x879 JUMP JUMPDEST PUSH1 0x1 DUP2 ADD SWAP1 POP PUSH2 0x892 JUMP JUMPDEST POP POP JUMP JUMPDEST PUSH1 0x1F DUP3 GT ISZERO PUSH2 0x8F4 JUMPI PUSH2 0x8C5 DUP2 PUSH2 0x79F JUMP JUMPDEST PUSH2 0x8CE DUP5 PUSH2 0x7B1 JUMP JUMPDEST DUP2 ADD PUSH1 0x20 DUP6 LT ISZERO PUSH2 0x8DD JUMPI DUP2 SWAP1 POP JUMPDEST PUSH2 0x8F1 PUSH2 0x8E9 DUP6 PUSH2 0x7B1 JUMP JUMPDEST DUP4 ADD DUP3 PUSH2 0x891 JUMP JUMPDEST POP POP JUMPDEST POP POP POP JUMP JUMPDEST PUSH0 DUP3 DUP3 SHR SWAP1 POP SWAP3 SWAP2 POP POP JUMP JUMPDEST PUSH0 PUSH2 0x914 PUSH0 NOT DUP5 PUSH1 0x8 MUL PUSH2 0x8F9 JUMP JUMPDEST NOT DUP1 DUP4 AND SWAP2 POP POP SWAP3 SWAP2 POP POP JUMP JUMPDEST PUSH0 PUSH2 0x92C DUP4 DUP4 PUSH2 0x905 JUMP JUMPDEST SWAP2 POP DUP3 PUSH1 0x2 MUL DUP3 OR SWAP1 POP SWAP3 SWAP2 POP POP JUMP JUMPDEST PUSH2 0x945 DUP3 PUSH2 0x42A JUMP JUMPDEST PUSH8 0xFFFFFFFFFFFFFFFF DUP2 GT ISZERO PUSH2 0x95E JUMPI PUSH2 0x95D PUSH2 0x4EA JUMP JUMPDEST JUMPDEST PUSH2 0x968 DUP3 SLOAD PUSH2 0x76F JUMP JUMPDEST PUSH2 0x973 DUP3 DUP3 DUP6 PUSH2 0x8B3 JUMP JUMPDEST PUSH0 PUSH1 0x20 SWAP1 POP PUSH1 0x1F DUP4 GT PUSH1 0x1 DUP2 EQ PUSH2 0x9A4 JUMPI PUSH0 DUP5 ISZERO PUSH2 0x992 JUMPI DUP3 DUP8 ADD MLOAD SWAP1 POP JUMPDEST PUSH2 0x99C DUP6 DUP3 PUSH2 0x921 JUMP JUMPDEST DUP7 SSTORE POP PUSH2 0xA03 JUMP JUMPDEST PUSH1 0x1F NOT DUP5 AND PUSH2 0x9B2 DUP7 PUSH2 0x79F JUMP JUMPDEST PUSH0 JUMPDEST DUP3 DUP2 LT ISZERO PUSH2 0x9D9 JUMPI DUP5 DUP10 ADD MLOAD DUP3 SSTORE PUSH1 0x1 DUP3 ADD SWAP2 POP PUSH1 0x20 DUP6 ADD SWAP5 POP PUSH1 0x20 DUP2 ADD SWAP1 POP PUSH2 0x9B4 JUMP JUMPDEST DUP7 DUP4 LT ISZERO PUSH2 0x9F6 JUMPI DUP5 DUP10 ADD MLOAD PUSH2 0x9F2 PUSH1 0x1F DUP10 AND DUP3 PUSH2 0x905 JUMP JUMPDEST DUP4 SSTORE POP JUMPDEST PUSH1 0x1 PUSH1 0x2 DUP9 MUL ADD DUP9 SSTORE POP POP POP JUMPDEST POP POP POP POP POP POP JUMP JUMPDEST PUSH0 DUP2 SWAP1 POP SWAP3 SWAP2 POP POP JUMP JUMPDEST PUSH0 PUSH2 0xA20 DUP4 DUP6 PUSH2 0xA0B JUMP JUMPDEST SWAP4 POP PUSH2 0xA2D DUP4 DUP6 DUP5 PUSH2 0x592 JUMP JUMPDEST DUP3 DUP5 ADD SWAP1 POP SWAP4 SWAP3 POP POP POP JUMP JUMPDEST PUSH0 PUSH2 0xA45 DUP3 DUP5 DUP7 PUSH2 0xA15 JUMP JUMPDEST SWAP2 POP DUP2 SWAP1 POP SWAP4 SWAP3 POP POP POP JUMP JUMPDEST PUSH32 0x4E487B7100000000000000000000000000000000000000000000000000000000 PUSH0 MSTORE PUSH1 0x11 PUSH1 0x4 MSTORE PUSH1 0x24 PUSH0 REVERT JUMPDEST PUSH0 PUSH2 0xA88 DUP3 PUSH2 0x393 JUMP JUMPDEST SWAP2 POP PUSH2 0xA93 DUP4 PUSH2 0x393 JUMP JUMPDEST SWAP3 POP DUP3 DUP3 ADD SWAP1 POP DUP1 DUP3 GT ISZERO PUSH2 0xAAB JUMPI PUSH2 0xAAA PUSH2 0xA51 JUMP JUMPDEST JUMPDEST SWAP3 SWAP2 POP POP JUMP INVALID LOG2 PUSH5 0x6970667358 0x22 SLT KECCAK256 0xA6 KECCAK256 DUP14 PUSH10 0xDDD7D0C27CE7BD000E2 0x25 PUSH23 0xC3AD25CE1E91181ABCAF9B9FBC9EA16564736F6C634300 ADDMOD XOR STOP CALLER "
				},
				"gasEstimates": {
					"creation": {
						"codeDepositCost": "558200",
						"executionCost": "infinite",
						"totalCost": "infinite"
					},
					"external": {
						"addPerson(string,uint256)": "infinite",
						"hasFavoriteNumber()": "2507",
						"listOfPersons(uint256)": "infinite",
						"nameToFavoritenumber(string)": "infinite",
						"retrieve()": "2433",
						"store(uint256)": "46826",
						"storeAndPlus(uint256)": "infinite"
					}
				},
				"methodIdentifiers": {
					"addPerson(string,uint256)": "6f760f41",
					"hasFavoriteNumber()": "85c3c411",
					"listOfPersons(uint256)": "510f17c5",
					"nameToFavoritenumber(string)": "678aa4b8",
					"retrieve()": "2e64cec1",
					"store(uint256)": "6057361d",
					"storeAndPlus(uint256)": "da27ae76"
				}
			},
			"storageLayout": {
				"storage": [
					{
						"astId": 4,
						"contract": "remix-simple-storage-cu-2024/contracts/SimpleStorage.sol:SimpleStorage",
						"label": "hasFavoriteNumber",
						"offset": 0,
						"slot": "0",
						"type": "t_bool"
					},
					{
						"astId": 6,
						"contract": "remix-simple-storage-cu-2024/contracts/SimpleStorage.sol:SimpleStorage",
						"label": "favoriteNumber",
						"offset": 0,
						"slot": "1",
						"type": "t_uint256"
					},
					{
						"astId": 9,
						"contract": "remix-simple-storage-cu-2024/contracts/SimpleStorage.sol:SimpleStorage",
						"label": "favoriteNumberInInt",
						"offset": 0,
						"slot": "2",
						"type": "t_int256"
					},
					{
						"astId": 12,
						"contract": "remix-simple-storage-cu-2024/contracts/SimpleStorage.sol:SimpleStorage",
						"label": "favoriteNumberInText",
						"offset": 0,
						"slot": "3",
						"type": "t_string_storage"
					},
					{
						"astId": 15,
						"contract": "remix-simple-storage-cu-2024/contracts/SimpleStorage.sol:SimpleStorage",
						"label": "myAddress",
						"offset": 0,
						"slot": "4",
						"type": "t_address"
					},
					{
						"astId": 18,
						"contract": "remix-simple-storage-cu-2024/contracts/SimpleStorage.sol:SimpleStorage",
						"label": "favoriteBytes32",
						"offset": 0,
						"slot": "5",
						"type": "t_bytes32"
					},
					{
						"astId": 27,
						"contract": "remix-simple-storage-cu-2024/contracts/SimpleStorage.sol:SimpleStorage",
						"label": "listOfPersons",
						"offset": 0,
						"slot": "6",
						"type": "t_array(t_struct(Person)23_storage)dyn_storage"
					},
					{
						"astId": 31,
						"contract": "remix-simple-storage-cu-2024/contracts/SimpleStorage.sol:SimpleStorage",
						"label": "nameToFavoritenumber",
						"offset": 0,
						"slot": "7",
						"type": "t_mapping(t_string_memory_ptr,t_uint256)"
					}
				],
				"types": {
					"t_address": {
						"encoding": "inplace",
						"label": "address",
						"numberOfBytes": "20"
					},
					"t_array(t_struct(Person)23_storage)dyn_storage": {
						"base": "t_struct(Person)23_storage",
						"encoding": "dynamic_array",
						"label": "struct SimpleStorage.Person[]",
						"numberOfBytes": "32"
					},
					"t_bool": {
						"encoding": "inplace",
						"label": "bool",
						"numberOfBytes": "1"
					},
					"t_bytes32": {
						"encoding": "inplace",
						"label": "bytes32",
						"numberOfBytes": "32"
					},
					"t_int256": {
						"encoding": "inplace",
						"label": "int256",
						"numberOfBytes": "32"
					},
					"t_mapping(t_string_memory_ptr,t_uint256)": {
						"encoding": "mapping",
						"key": "t_string_memory_ptr",
						"label": "mapping(string => uint256)",
						"numberOfBytes": "32",
						"value": "t_uint256"
					},
					"t_string_memory_ptr": {
						"encoding": "bytes",
						"label": "string",
						"numberOfBytes": "32"
					},
					"t_string_storage": {
						"encoding": "bytes",
						"label": "string",
						"numberOfBytes": "32"
					},
					"t_struct(Person)23_storage": {
						"encoding": "inplace",
						"label": "struct SimpleStorage.Person",
						"members": [
							{
								"astId": 20,
								"contract": "remix-simple-storage-cu-2024/contracts/SimpleStorage.sol:SimpleStorage",
								"label": "name",
								"offset": 0,
								"slot": "0",
								"type": "t_string_storage"
							},
							{
								"astId": 22,
								"contract": "remix-simple-storage-cu-2024/contracts/SimpleStorage.sol:SimpleStorage",
								"label": "myFavoriteNumber",
								"offset": 0,
								"slot": "1",
								"type": "t_uint256"
							}
						],
						"numberOfBytes": "64"
					},
					"t_uint256": {
						"encoding": "inplace",
						"label": "uint256",
						"numberOfBytes": "32"
					}
				}
			},
			"userdoc": {
				"kind": "user",
				"methods": {},
				"version": 1
			}
		}
	}
}